:0200000460009A
:100000004643464200000156000000000101020084
:1000100000000000000000000000000000000000E0
:1000200000000000000000000000000000000000D0
:1000300000000000000000000000000000000000C0
:1000400000000000010403000000000000000000A8
:100050000000200000000000000000000000000080
:100060000000000000000000000000000000000090
:100070000000000000000000000000000000000080
:10008000EB04180A063204260000000000000000FD
:10009000050404240000000000000000000000002F
:1000A0000000000000000000000000000000000050
:1000B0000604000000000000000000000000000036
:1000C0000000000000000000000000000000000030
:1000D00020041808000000000000000000000000DC
:1000E0000000000000000000000000000000000010
:1000F0000000000000000000000000000000000000
:1001000000000000000000000000000000000000EF
:100110000204180804200000000000000000000095
:1001200000000000000000000000000000000000CF
:10013000600400000000000000000000000000005B
:1001400000000000000000000000000000000000AF
:10015000000000000000000000000000000000009F
:10016000000000000000000000000000000000008F
:10017000000000000000000000000000000000007F
:10018000000000000000000000000000000000006F
:10019000000000000000000000000000000000005F
:1001A000000000000000000000000000000000004F
:1001B000000000000000000000000000000000003F
:1001C000000100000010000001000000000000001D
:1001D000000000000000000000000000000000001F
:1001E000000000000000000000000000000000000F
:1001F00000000000000000000000000000000000FF
:10020000D4D4D4D4D4D4D4D4D4D4D4D4D4D4D4D4AE
:10100000D10020400020006000000000000000002F
:1010100020100060001000600000000000000000D0
:101020000000006064C3000000000000EFBEADDE01
:10103000124880F3088812481249016000F036F81F
:10104000114812490022814201D004C0FBE7104838
:101050001049114A814202D008CA08C0FAE70F4875
:101060004FF47001026842EA01020260BFF34F8F41
:10107000BFF36F8F00F014F800DE00000040002086
:1010800008ED00E0004000200050002060740020C7
:10109000B84200206844002068C3006088ED00E08A
:1010A00041F66B3CC0F2000C6047D4D4204840F2BB
:1010B0009C41884219D040F24C418842CCBF1D4A25
:1010C0001D4A1E4B5360136823F0800313601C48B5
:1010D0001C49C1BF1C480A0C8264C1F30F01416462
:1010E000016C41F00401016402E0184815490160F7
:1010F0001748184A824205D01749814202D008CACF
:1011000008C0FAE71548164A824205D015498142BF
:1011100002D008CA08C0FAE71348144A824205D030
:101120001349814202D008CA08C0FAE7704700009C
:10113000240400000080034000C00B4020C528D9D3
:1011400000C00A40AAAAFAFF00400E4060004F44C7
:1011500000000000B82200608C8C000000400020DD
:1011600000200060B84200200000202048AF00604E
:1011700020142020D4D4D4D4D4D4D4D4D4D4D4D40B
:10118000D4D4D4D4D4D4D4D4D4D4D4D4D4D4D4D41F
:10119000D4D4D4D4D4D4D4D4D4D4D4D4D4D4D4D40F
:1011A000D4D4D4D4D4D4D4D4D4D4D4D4D4D4D4D4FF
:1011B000D4D4D4D4D4D4D4D4D4D4D4D4D4D4D4D4EF
:10200000004000203110006051480000858C000025
:1020100051480000514800005148000000000000F5
:102020000000000000000000000000005148000017
:10203000514800000000000051480000910D0000D0
:10204000514800005148000051480000514800002C
:10205000514800005148000051480000514800001C
:10206000514800005148000051480000514800000C
:1020700051480000514800005148000051480000FC
:1020800051480000000000000000000000000000B7
:1020900051480000514800005148000051480000DC
:1020A00051480000514800005148000051480000CC
:1020B00051480000514800005148000051480000BC
:1020C00051480000514800005148000051480000AC
:1020D000514800005148000051480000514800009C
:1020E000514800005148000051480000514800008C
:1020F000514800005148000051480000514800007C
:10210000514800005148000051480000514800006B
:10211000000000005148000000000000514800008D
:10212000514800005148000051480000514800004B
:1021300051480000514800000000000051480000D4
:10214000514800005148000051480000514800002B
:10215000514800005148000000000000000000004D
:10216000514800005148000051480000514800000B
:1021700051480000514800005148000051480000FB
:1021800051480000514800005148000051480000EB
:1021900051480000514800005148000051480000DB
:1021A00051480000514800005148000051480000CB
:1021B00051480000514800005148000051480000BB
:1021C0005148000051480000514800000000000044
:1021D000514800005148000051480000514800009B
:1021E000514800005148000051480000514800008B
:1021F000514800005148000051480000514800007B
:10220000514800005148000051480000514800006A
:10221000514800005148000051480000514800005A
:10222000514800005148000051480000514800004A
:1022300051480000514800005148000000000000D3
:1022400000000000514800005148000051480000C3
:10225000514800005148000051480000514800001A
:10226000514800005148000051480000514800000A
:1022700051480000514800005148000051480000FA
:1022800051480000514800005148000051480000EA
:1022900051480000514800005148000051480000DA
:1022A0005148000051480000514800000000000063
:0822B0005148000051480000F4
:1022B800D0B502AF84B00188062911D181690968B7
:1022C800BFF35F8F79B10023827F009302AB04468E
:1022D8001846012305F0DCFF0820208004B0D0BD9B
:1022E800072004B0D0BD40F6841040F6A812C2F210
:1022F8002000C2F22002222107F092FEF0B503AFBF
:102308004DF804BD86B0044608880D46411E0329D1
:1023180027D3052825D0072832D1D5F8AC00D5F821
:10232800063069898028D5F80220ADF80C10CDE96F
:1023380001236BD8E9680968BFF35F8F00295AD079
:10234800C0F18003AA7C2844009300F1240304A868
:1023580005F0E1FD9DF81000C0B39DF81100D8B953
:102368002EE0E8680168BFF35F8F002943D0AA7C9C
:1023780004A800260123009605F0CDFD2E801FE05D
:10238800E8680168BFF35F8FA9B30020AA7C0090BA
:1023980004A8012305F0BFFDE86809212980006829
:1023A800BFF35F8F38B3A97C012205F0C7FCA86989
:1023B8000068BFF35F8FF0B1A97F012205F0BEFC72
:1023C8000420607206B05DF804BBF0BD0598D5E93D
:1023D8002B120844C5F8AC009042F1D3DDE90101A5
:1023E8000623BDF80C202B8020606160228106B096
:1023F8005DF804BBF0BD40F6841040F6A812C2F2A6
:102408002000C2F22002222107F00AFE40F22873BF
:102418008021C2F22003802207F064FDF0B503AFEB
:102428002DE9000F83B00446C8680D460168BFF364
:102438005F8F002900F08E808020AA7C009005F133
:10244800240301A805F067FD9DF80400012803D1C5
:102458009DF8050050BB3FE00299812980F08580F6
:10246800082923D1E86895F82410B5F82AB0D5F8DA
:10247800268001F01F0295F82590042A006828BFDD
:102488000422BFF35F8F002864D0C1F3411301F029
:102498008006A97C42EA032A002205F04FFC0EBB05
:1024A800BBF1000F36D0BBF1800F44D9E868092191
:1024B80029800068BFF35F8F00284BD0A97C0122D8
:1024C80005F03CFCA8690068BFF35F8F002841D085
:1024D800A97F012205F032FC0420607203B0BDE838
:1024E800000FF0BD0420A5F80AA06E7285F80890C8
:1024F800A5F806B0C5F802802880A4F808A0E671FF
:1025080084F80690A4F804B0C4F8008003B0BDE8CD
:10251800000FF0BD0620A4F808A028800020C5F808
:10252800B000E07184F80690A080C4F8008003B081
:10253800BDE8000FF0BD0020A5F80AA0C5E92B0BE7
:102548006872072085F80890A5F806B0C5F80280DB
:102558002880C1E740F6841040F6A812C2F2200095
:10256800C2F22002222107F05BFD40F238730020FE
:10257800C2F22003802207F0B5FCD0B502AF84B0C8
:102588000446D0E929C2D0F8AC00D4F8B010BCF1A8
:10259800000FA38B08BF8022091A994238BF0B4647
:1025A800191828D2914226D8A1690968BFF35F8F0C
:1025B80039B3A27FBCF1000F009308BF04F1240CCB
:1025C8000CEB000302A805F063FE9DF8080080B933
:1025D8000398D4E92B120144C4F8AC10914208D3F3
:1025E8000021A28BC4F8A4100321904208BF022145
:1025F800218004B0D0BD40F24873C2F2200307F036
:1026080071FC40F6841040F6A812C2F22000C2F213
:102618002002222107F004FDB0B502AF84B0018882
:102628000139072939D8DFE801F0041C0A3838389D
:102638003832FFF7A2FF0024204604B0B0BDC168BD
:102648000A68BFF35F8F002A41D0817C0546104697
:102658000022002405F072FB05202880204604B0E3
:10266800B0BD81690968BFF35F8F81B3827F05467A
:1026780002A800240123009405F00AFE9DF8080032
:10268800002804BF03202880204604B0B0BD0021E4
:1026980001240180204604B0B0BDC168092202802F
:1026A8000A68BFF35F8F92B1817C0446104601220D
:1026B80005F044FBA0690068BFF35F8F38B1A17FC4
:1026C800012205F03BFB0024204604B0B0BD40F6D3
:1026D800841040F6A812C2F22000C2F22002222181
:1026E80007F09EFCF0B503AF2DE9000B8CB0044653
:1026F8000088042846D100200D46079080218DF8D7
:102708002000164603900190099001A80B9009A893
:10271800069104F12401B4F80680059106F0C8FB7F
:10272800C0B208282AD176B105EBC6060DF12409F6
:10273800D5E900010A6949469047C1B208291DD167
:102748000835B542F4D109A806F00BFC0798802893
:102758001DD9E068092121800068BFF35F8F30B37D
:10276800A17C012205F0EAFAA0690068BFF35F8F37
:10277800E8B1A17F012205F0E1FA02200CB0BDE822
:10278800000BF0BD07200CB0BDE8000BF0BD012226
:1027980000212280404538BF80462046C4E92B18D6
:1027A800FFF7EBFE08200CB0BDE8000BF0BD40F6CB
:1027B800841040F6A812C2F22000C2F220022221A0
:1027C80007F02EFCF0B503AF2DE9000788B00446EA
:1027D8000088042848D1D1E9000680228D680021AC
:1027E800059204F12402069104928DF81C100291BE
:1027F800009101686846B4F8068005F0EDFFC0B2A4
:1028080008282DD18DB106EBC505E9464FF0000A21
:10281800D6E90001CA6849469047C1B208291FD1C4
:102828000836CDF808A0AE42F2D1684606F0BCF8EA
:10283800069880281DD9E068092121800068BFF327
:102848005F8F30B3A17C012205F078FAA069006897
:10285800BFF35F8FE8B1A17F012205F06FFA022074
:1028680008B0BDE80007F0BD072008B0BDE80007C4
:10287800F0BD012200212280404538BF8046204615
:10288800C4E92B18FFF779FE082008B0BDE8000757
:10289800F0BD40F6841040F6A812C2F22000C2F241
:1028A8002002222107F0BCFBB0B502AF88B0044675
:1028B800008804282DD1D1E9001200208023069039
:1028C8008DF81C00029000906846059304F12403DB
:1028D800E588049306F0C0F9C0B2082817D1069815
:1028E800802819D9E068092121800068BFF35F8F2B
:1028F80000B3A17C012205F021FAA0690068BFF3AA
:102908005F8FB8B1A17F012205F018FA022008B044
:10291800B0BD072008B0B0BD012200212280A84226
:1029280038BF05462046C4E92B15FFF726FE0820C8
:1029380008B0B0BD40F6841040F6A812C2F22000DC
:10294800C2F22002222107F06BFBB0B502AF88B0BB
:102958000446008804282CD10968002080220690AB
:102968008DF81C00029000906846059204F124023C
:10297800E588049206F0D3F8C0B2082817D1069863
:10298800802819D9E068092121800068BFF35F8F8A
:1029980000B3A17C012205F0D1F9A0690068BFF35A
:1029A8005F8FB8B1A17F012205F0C8F9022008B0F5
:1029B800B0BD072008B0B0BD012200212280A84286
:1029C80038BF05462046C4E92B15FFF7D6FD082079
:1029D80008B0B0BD40F6841040F6A812C2F220003C
:1029E800C2F22002222107F01BFBB0B502AF8AB069
:1029F80004460088042833D1002080210790A7F1DD
:102A08000A028DF8200002230390019040F2094049
:102A1800069104F1240127F80A0C01A80591032165
:102A2800E58806F02DF8C0B2082817D10798802845
:102A380019D9E068092121800068BFF35F8F00B3CE
:102A4800A17C012205F07AF9A0690068BFF35F8FC5
:102A5800B8B1A17F012205F071F902200AB0B0BD1A
:102A680007200AB0B0BD012200212280A84238BF49
:102A780005462046C4E92B15FFF77FFD08200AB05C
:102A8800B0BD40F6841040F6A812C2F22000C2F28F
:102A98002002222107F0C4FA0288042A1CBF07205A
:102AA8007047F0B503AF4DF804BD4C68802C03D9CE
:102AB80002205DF804BBF0BD096800F12402C68855
:102AC80005461046224607F0D7FA0020B44238BF20
:102AD8002646C5E92B06012028802846FFF74DFD2C
:102AE80008205DF804BBF0BDD0B502AF0446C0684D
:102AF800092121800068BFF35F8F78B1A17C012292
:102B080005F01CF9A0690068BFF35F8F00281FBF9C
:102B1800A17F0122BDE8D04005F010B940F684102D
:102B280040F6A812C2F22000C2F22002222107F0C9
:102B380077FAF0B503AF2DE9000FADF5257D8B468B
:102B4800044601F1340038310BF1540203F040FB24
:102B5800DBF8C80004F099F8DBF82801016841F0B7
:102B680001010160DBF82811086820F00200086004
:102B78000020C1F80801C1F81801C1F82801209106
:102B8800C1F83801DBF8C0A0DAF8000020F0010035
:102B9800CAF80000DAF8000040F40040CAF8000063
:102BA800DAF8000000040CD5DAF80000000444BF8D
:102BB800DAF800005FEA004003D5DAF80000000404
:102BC800EED43F20CAF80800DAF8000020F001002F
:102BD800CAF80000DBF8C460306820F001003060FB
:102BE800306840F4004030603068000409D530682F
:102BF800000444BF30685FEA004002D53068000432
:102C0800F2D43F2040F26341B060306820F0010008
:102C18003060DBF80050DBF85C011F90A86C40F0D6
:102C28000100A864686C08436864686C012161F35A
:102C380083006864686C20F080006864A86C40F0C9
:102C48002000A864686C40F440406864686C40F4F4
:102C580044706864A86C40F08000A864A86D000700
:102C680009D0A86D00071CBFA86D5FEA007002D0EC
:102C7800A86D0007F2D1A86C40F2634140F0200033
:102C8800A864686C20F440406864686C20F4447060
:102C980000F588706864DBF80480D8F8480040F0D4
:102CA8000100C8F84800D8F844000843C8F84400B0
:102CB800D8F84400012161F38300C8F84400D8F82B
:102CC800440020F08000C8F84400D8F8480040F0DC
:102CD8002000C8F84800D8F8440040F44040C8F83C
:102CE8004400D8F8440040F44470C8F84400D8F8C8
:102CF800480040F08000C8F84800D8F8580000079D
:102D08000CD0D8F8580000071CBFD8F858005FEA64
:102D1800007003D0D8F858000007EED1D8F8480062
:102D280002214FF4805240F02000C8F84800D8F83B
:102D3800440020F44040C8F84400D8F8440020F487
:102D4800447000F58870C8F84400DBF87C91D9F825
:102D5800000040F48030C9F80000D9F8000040F0C5
:102D68004000C9F800002220C0F20F00C9F8040092
:102D780040F26850C0F20C10C9F8200040F29510DB
:102D8800C0F2B200C9F82400DC20C0F27A00C9F809
:102D980028007D20C0F25800C9F82C004B20C0F252
:102DA8004000C9F830002F20C0F22E00C9F83400C6
:102DB800C9F8380046F62010C9F80C0040F6A310F0
:102DC800C9F808004FF4C840C9F81C004FF4C8609F
:102DD800C9F8180040F6C410C0F68040C9F81000C1
:102DE8003F20C9F81400D9F8000061F30100C9F8C0
:102DF8000000D9F8000020F48030C9F80000D9F8A4
:102E08007C00DBF8681121A803F0ACFFDBF89C001C
:102E18000F90DBF8A4000A90DBF8A8000690DBF816
:102E2800AC000590DBF884010490DBF89001039076
:102E3800DBF89801DBE91712029025A803F028FFB8
:102E4800DBE90D10DBF830211E90DBF854001D90F3
:102E5800DBF880000C90DBF8E0001B90DBF8E80062
:102E68001A90DBF8F0001990DBF8F4001890DBF802
:102E7800F8001790DBF8FC001290DBF800011690C0
:102E8800DBF804011490DBF808011390DBF80C015F
:102E98001190DBF810011590DBF814010E90DBF8A7
:102EA80018010D90DBF81C011090DBF884000990E4
:102EB800DBF888001C910F2108904FF470400B92AA
:102EC800A2F88C01A2F88E11DBF834210792A2F83F
:102ED8008C01A2F88E11DBF838210192A2F88C013E
:102EE800A2F88E11DBF83C210092A2F88C01A2F81E
:102EF8008E1125A906984FF4007220620598606229
:102F08000498A0620398E062029820632098C4E9BC
:102F180004A6DBF8CCA0C4E90000C4E902000F98BD
:102F2800A0610A98E061DBF84C012090DBF85001C1
:102F38000F9004F5A270DBF854B107F0DBFD1F9980
:102F4800009B01F13400503103F16002C4E9D11053
:102F580004F1D40080E8200303F5907003F1C00168
:102F6800C4F8C4000C98C4F8C8000998C4F8CC0088
:102F78000898C4F8D0000798C4E92D3300F5907379
:102F880000F1C00500F16006C4E9230012986065ED
:102F98000E98A0651198E0651498206613986066ED
:102FA8001098A0661698E066159820671C98C4E9E2
:102FB8002F21019960631E9801F1C00EA06301F1F1
:102FC80060021D9801F5907CE0631B98C4E92731E5
:102FD80004F1A40320641A9883E806400B9B6064FC
:102FE800199803F16002A06403F1C0011898C4E9BC
:102FF800256503F59075E0641798206504F1E000F5
:103008000D9EC4E921154021C4F8B0C0C4E91D6370
:10301800C4E91F3207F0BBFC21AE102004F5907CF8
:10302800C4F840A14ECE8CE84F002098C4F8340173
:103038000F98C4E94E0B0DF5257DBDE8000FF0BDD6
:1030480080B56F4647F20440C2F2000050E8001F06
:10305800013140E80012002AF8D180BD80B56F46E2
:10306800AEB0824644F2DE20C2F2000003AD008812
:103078008021029044F2DC20BFF35F8FC2F200008F
:103088000088802401902846BFF35F8F07F07FFCFB
:10309800002040F26871289040F20F32DAF8000000
:1030A80024AB239041F65D20C0F20000C2F220015B
:1030B800259023A8249026A8C2F22002CDE9265400
:1030C80006F092F8289A812A43D226A803A906F086
:1030D800D1FD26AD47F25841C2F2000140F280709E
:1030E80034CDC2F220000E68002A1CBF04460E250B
:1030F800002E1FBF47F25440C2F20000D0F800B0C3
:10310800BBF1000F01D100F073FEDAF80400DDE92D
:10311800012190E8000742EA010000B2B0F1FF3F48
:103128000ADDADF89A104FF4417026A9ADF8980061
:103138005846ADF89C20B04729A826A980E8200366
:1031480007208DF898005846CDE927A4B04700F02D
:103158004FFE40F290731146C2F2200300208022F5
:1031680006F0C0FE80B56F46002080BD80B56F4672
:1031780080BD80B56F46082080BD80B56F4680BD94
:1031880080B56F460822002182814FF4FA52C0E9C7
:103198005011C0E92E11C18681738260016080BD23
:1031A800F0B503AF2DE9000B82B0D1E9003E4FF036
:1031B800040C734500F005811C4614F9016B0C6082
:1031C80006F07F05B6F1FF3F30DD002D00F0878067
:1031D800012D61D0022D40F023810425744500F0B3
:1031E800BF80234613F9012B0B6002F07F09B2F16F
:1031F800FF3F40F39B8005460420734500F00181A2
:103208001C4614F9012B0C6002F07F08B2F1FF3F55
:1032180040F3DF80684601F009FB9DF800109DF837
:103228000100022940F0A3800421ABE0744500F0BE
:10323800C88093F901609C1C0C6006F07F02B6F10F
:10324800FF3F45EAC215C0DC744500F0BA8093F927
:103258000220DC1C0C6002F07F06B2F1FF3F45EA59
:103268008635B2DC744500F0AC8093F903201C1D50
:103278000C6002F07F06B2F1FF3F45EA4655A4DC38
:10328800744500F09E801E795C1D0C600F2E00F2C4
:10329800C38045EA067598E74FF0040874453DD0A9
:1032A800234613F9012B0B6002F07F05B2F1FF3FB3
:1032B8001BDD4FF0040C734500F083801E4616F9A1
:1032C800012B0E6002F07F04B2F1FF3F60DD0321A5
:1032D80084804580017002B0BDE8000BF0BD02217A
:1032E800017002B0BDE8000BF0BD734516D094F92B
:1032F8000120A31C0B6002F07F06B2F1FF3F45EAF4
:10330800C615D6DC734509D094F802C0E31C0B60DF
:10331800BCF1040F7CD245EA8C35CAE7042180F859
:103328000080417002B0BDE8000BF0BD734517D0B6
:1033380094F90120A31C0B6002F07F06B2F1FF3F55
:1033480049EAC6193FF757AF734509D094F802C048
:10335800E31C0B60BCF1040F5CD249EA8C394AE7E4
:1033680004210570417002B0BDE8000BF0BDDDF826
:103378000220BDF80630EB80C5F80220A5F80A80C7
:10338800A5F808906870297002B0BDE8000BF0BD80
:10339800764516D093F9012003F10208C1F80080A0
:1033A80002F07F06B2F1FF3F44EAC6148FDCF04515
:1033B80007D09A7803330B60042A2DD244EA82346A
:1033C80085E7042180F800C0417002B0BDE8000B19
:1033D800F0BD744515D093F901209C1C0C6002F0D7
:1033E8007F06B2F1FF3F48EAC6183FF713AF7445AE
:1033F80007D09A7803330B60042A0FD248EA823840
:1034080008E704212870697002B0BDE8000BF0BD20
:10341800052184E70521A4E70521D3E70521F1E784
:103428000E21CFE780B56F4600281CBFBDE880405D
:1034380000F077BC80BD80B56F46ADF6A80D05F0ED
:10344800D6FD044605F0C7FD47F25D40E207C2F22B
:103458000000017807D1002940F0BB8301210170E9
:1034680005F0BBFD04E0002940F0B583012101709F
:103478004CF21C504CF21851C6F20000C6F2000182
:10348800401AD8AC4FEA900B204603F090F90DF2A1
:10349800245921464846FFF74CFBDDF8400547F81C
:1034A800080CA7F10800DDF84C55DDF8546503F069
:1034B8006CF901F01F01012245F2000E02FA01F138
:1034C800C2F2000EC0F884100EF59A51BFF35F8F58
:1034D80051E8002F42F0004341E80034002CF7D1B6
:1034E800002ABFF35F8F00F1698347F2000C0123C4
:1034F800C2F2000C0CF58062BFF35F8FD2E84F4F29
:10350800C2E8403F0028F9D1002CBFF35F8F40F09C
:103518004A834FF00040CDF818B07063B0634FF0A5
:103528008040B063002030600220C5F84001D5F823
:10353800400180070CD5D5F84001800744BFD5F875
:1035480040015FEA807003D5D5F840018007EED4CA
:103558004FF0000A0A20C5F840A14FF0100BC5F83B
:10356800A801D5F8840140F08070C5F88401D5F829
:103578004401C5F844010DF5A860C5F848A1C5F88F
:1035880058E162C00EF590500021CDF838050EF5CF
:103598008050CDF830054846CDF84CC5CDF828E523
:1035A8008DF858A5ADF854A5CDF85025CDF83CB503
:1035B800CDF834B5CDF82CB5CDF824A504F0A3FA90
:1035C80047F204484FF48060C2F20008494648F8C0
:1035D80008AFA8F80400012048F8040C08F10C0012
:1035E800C8F808A03CC93CC07CC97CC091E87C00F4
:1035F80041467CC007AD05F108004022C8F844A048
:1036080001F020FB05F138008021012207F016FAAD
:1036180005F1C00080210122CDE935AA07F00EFA94
:1036280045F62400A7F13802C2F2DD70414647F89A
:10363800200C322047F8160C0220C0F60000CDE915
:1036480057AA47F81A0C132047F82C0C40F67000BC
:10365800C2F22000CDF81CA047F8300C05F5167012
:1036680027F81CBC47F828AC47F838AC00F030FF06
:103678004EF21001CEF20001086840F00400086024
:1036880042F2BF70C0F209004860C1F808A008689B
:1036980040F001000860086840F00200086005F585
:1036A800AA704FF481718DF85CA3CDF864A107F07E
:1036B8006EF94EF6FC504FF45172CEF200000168DC
:1036C80041F08071016041F20401CEF20001C1F8BD
:1036D80000A051F8040C40F0010041F8040C4846E1
:1036E800294607F007FA47F2544047F25841C2F218
:1036F8000000C2F20001C0F8009041F27510C0F25B
:10370800000009F5A47B08600698CDF86C084CF217
:103718001850C6F20000CDF8680809F108000490B6
:1037280009F138000590D8A81030009009F51670F6
:10373800069002E000208DF8640840F68400D8A9BD
:10374800C2F220000122D9900DF22450D890069898
:1037580000F0AAFD70B19DF85E080228EAD19DF834
:10376800640858B9DDF8580804F01DFA01208DF8EE
:10377800640803E09DF864080028DED00DF5587948
:103788004021484607F003F9A7F10805BDF844258C
:10379800A7F13806059904982B4647F8080C3046D7
:1037A80001F0D1F917F8380C0028C6D1DDF8DC058E
:1037B800DDF8E0158142C0D0A1EB00084021B8F146
:1037C800400F28BF884608EB000A8245C0F0E38115
:1037D800BAF1810F80F0DF810599424601444846DD
:1037E80006F04AFC0024CDF8DCA502E00134A0452F
:1037F800A3D019F80410584601F040FF0028F5D06E
:1038080047F8080C084447F8040C30462946FFF7E7
:10381800C7FC17F8380C0428E8D0811E38BF0221ED
:10382800002900F0CC8037F8346CC9B237F8364C30
:10383800012940F05781DDF86C08A0427FF67DAF82
:10384800DDF8680850F824004168B1427FF675AF8A
:10385800D0F800804FF48270ADF860030DF2245068
:10386800D8A9ADF86463ADF8624300F05AFA0028AD
:1038780040F0808144F2DE2544F2DC20C2F20005EB
:10388800BFF35F8F2C80C2F20000BFF35F8F47F257
:10389800044ABFF35F8F068006EB4600BFF35F8FD5
:1038A800C2F2000ADAF8001008EB800041F20408BE
:1038B80003914EF21001CEF20008CEF20001D1F8C9
:1038C8000890D8F80010806802918047D8F80080E6
:1038D80044F2DC21DAF80000C2F2000101904EF255
:1038E8001000CEF20000D0F808A04FF0FF30BFF370
:1038F8005F8F2880BFF35F8FD8ADBFF35F8F0880DD
:103908004FF40170BFF35F8FADF860030DF22450E0
:103918002946ADF86463ADF8624300F002FA002866
:1039280040F0288142F2BF7143F60722C0F2090134
:10393800B1EB0A004FF0000E38BF7046B1EB090139
:10394800C0F26D0238BF7146A0FB020C039BADF8B4
:103958006243A1FB02014FF47A720020019CE3FB51
:1039680002100523ADF8646300268DF86033E4FB8C
:1039780002C6029BB8EB03037EF100044EF100027D
:1039880092F0010F18BF0024DB9418BF0023BCEB92
:103998000101DA9376EB00004EF1000292F0010F7C
:1039A80018BF0020DD9018BF0021DC910DF22450D3
:1039B800294600F0B6F900283FF4BFAEDAE0DDF89A
:1039C8006C08002800F08280DDF86848002504EBC8
:1039D8008000019054F8048B0026ADF8625308F17A
:1039E80004028DF86063D8F8143007CAADF8640390
:1039F8000DF22450CDE9DA124946ADF8663300F0ED
:103A080090F9002840F0B680D8F804004FF0010A79
:103A18000294E0B1D8F8006000EB4000002406EB07
:103A28008009D6E90001CDE9DA010DF22450D8A9C0
:103A3800ADF86443ADF862538DF860A300F071F9F6
:103A4800002840F097800C3601344E45E9D1D8F86B
:103A5800140098B3D8F810804FF0000908EBC000A4
:103A6800039008EBC90A58F83900DAF804104969D4
:103A780088470646DAF804000C4658F839100269F7
:103A8800A7F13800904757E90E010222CDE9DC0181
:103A98000DF22450D8A9CDE9DA64ADF86493ADF8F5
:103AA80062538DF8602300F03CF9002862D109F1D7
:103AB800010903990AF108008842D2D1DDE901041D
:103AC80001350DF5587984427FF484AF40F2A07136
:103AD8000DF22450C2F2200100F023F900283FF42F
:103AE8002CAE47E037F82EAC37F8309CDDF86C3850
:103AF80017F8371C37F8322C4B4527F80A2C27F8CB
:103B08000C6C27F80E4C07F80F1C07F8100C7FF602
:103B180014AEDDF8680850F82900416951457FF670
:103B28000CAE006900EBCA0150F83A40D1F80480A5
:103B3800A7F11001D8F8182020469047D8F814109B
:103B48002046884705460098D8F810200E4621469A
:103B580090470220CDE9DA568DF860030DF2245023
:103B6800ADF864A3D8A9ADF8629300F0DAF800289C
:103B78003FF4E3AD47F254410020C2F2000108606F
:103B880047F25841C2F20001086026211820C0F20D
:103B98000201ABBEFEE740F6F8235146C2F220030D
:103BA800802206F09FF940F6000040F69822C2F203
:103BB8002000C2F22002202106F0D9F940F6682040
:103BC80040F68822C2F22000C2F220021F2106F02D
:103BD800CEF905F002FA40F66000C2F2200006F0C5
:103BE800D9F9F0B503AF4DF804BD82B000228029A1
:103BF800019208D28DF804100122D0E901418D18F4
:103C0800A5423BD944E04FF6FE7C0B46C0F2FF3C90
:103C18008A096CF39F13B1F5006F0CD242F0C00112
:103C28008DF805308DF804100222D0E901418D1875
:103C3800A54223D92CE06CF39F120C0B0025B5EBA1
:103C4800114F07D18DF8052044F0E0018DF80630BA
:103C580003220CE08DF8062004226FF00F0545EAD8
:103C680091416CF39F148DF807308DF805408DF85D
:103C78000410D0E901418D18A54209D88D420FD30F
:103C8800036806460B4401A9184606F0F5F9B56025
:103C98000020A54288BF012002B05DF804BBF0BD3A
:103CA80040F290730846C2F220032946224606F0E5
:103CB80019F980B56F4613460A4640F26871C2F298
:103CC8002001BDE8804005F08FBAF0B503AF4DF88C
:103CD80004BD0346D0E901608518B54207D885427E
:103CE8000CD31C6820441C4606F0C6F9A5600020C9
:103CF800B54288BF01205DF804BBF0BD40F2907367
:103D08002946C2F22003324606F0ECF880B56F4629
:103D18000268D1E90001D2E90023BDE8804005F03E
:103D280063BAF0B503AF2DE90007ADF5047D6E4623
:103D38000D46044630464FF4007106F028FE80A870
:103D4800294632464FF4007301F040FD9DF8000209
:103D580028B101200DF5047DBDE80007F0BD94F8F9
:103D6800400301282CD1819DB5F5007F36D83DB39D
:103D780040F6840A04F516780DF502796E46C2F20B
:103D8800200A00E0E5B1404649460122CDE9824AD1
:103D980000F08AFA4846214632462B4600F0DEFCFF
:103DA8009DF80802012805D19DF809020028D0D104
:103DB80010BFE7E78398854208D306442D1AE1E748
:103DC80000200DF5047DBDE80007F0BD40F6B803FE
:103DD8002946C2F220032A4606F084F840F6C803B2
:103DE8000020C2F2200329464FF4007206F07AF848
:103DF80080B56F4605F0F3F84EF60C500422CEF26B
:103E08000000C0F2FA52016801F4E0611143016058
:103E180005F0E5F805F0E9F8FCE780B56F46FFF72F
:103E28000AFBF0B503AF2DE9000786B01D469146A1
:103E3800884682468AB108EBC9064446D4E900019F
:103E48002A464B6A51469847BAF8000040F00200EB
:103E5800062826D10834B442F0D1687A28B3BAF8D3
:103E6800001041F0020006281BD1DAF80C000921E5
:103E7800AAF800100068BFF35F8F002800F0878061
:103E88009AF81210012203F059FFDAF818000068B6
:103E9800BFF35F8F00287AD09AF81E10012203F032
:103EA8004DFF06B0BDE80007F0BD297AA87939B3FF
:103EB800012912D0022908BF0028D0D16988DAF870
:103EC800DC0001F08F0103F086FEBAF80010042927
:103ED800C7D1AAF8240000202CE020B30A28BED1BC
:103EE800BAF800100429BCD1BAF806100020012243
:103EF8008AF82400AAF80020002918BF012121E02F
:103F080090B3062824D00828A9D19AF8E200012104
:103F18000591A7F1220102380491B0FA80F0400916
:103F280007F8220C2EE0BAF80010042999D10020D5
:103F3800AAF82400BAF806100122AAF800200229DB
:103F480028BF0221CAE92B015046FEF716FB86E777
:103F580069884A4628885346CDE900010AF1B40029
:103F6800414600F0E7F87AE79AF8E00002229AF86A
:103F7800E1100592A7F1220240000492C0B2084362
:103F880027F8220C04A95046FEF786FD67E740F69D
:103F9800841040F6A812C2F22000C2F220022221A8
:103FA80006F03EF8F0B503AF4DF8048D84B01D4619
:103FB80080468AB101EBC2040E46D6E900012A46C2
:103FC8000B6A41469847B8F8000040F002000628FE
:103FD80034D10836A642F0D1687A98B36EE040F042
:103FE800020006282AD1D8F80C000921A8F80010E8
:103FF8000068BFF35F8FB0B198F81210012203F088
:104008009DFED8F818000068BFF35F8F00281FBF17
:1040180098F81E10012204B05DF8048B1CBFBDE89F
:10402800F04003F08BBE40F6841040F6A812C2F2AE
:104038002000C2F22002222105F0F2FF04B05DF850
:10404800048BF0BD2A7AA87929886AB3012A10D08E
:10405800022A33D1012838D0032808BF00292DD1DE
:1040680069880122D8F8DC0001F08F0103F066FEB0
:1040780050E00B2822D1002904BFB8F80000062818
:104088001CD1D8F818000168BFF35F8F0029CAD087
:1040980098F81E200020009002A8012304F0F8F8E8
:1040A8000820A8F8000009E00138082806D8DFE849
:1040B80000F008052005170505052600B8F80000DA
:1040C8008DE70129FAD1002016E00029F6D1698888
:1040D8000022D8F8DC0001F08F0103F02FFE19E070
:1040E800481E80B27F28E9D2D8F8DC0003F04BFEE6
:1040F8000DE00129E2D1012088F8E0000AE019B1B9
:104108000129DBD1022003E098F8E20030B1012058
:1041180088F8E2004046FEF7CBF8CFE7B8F8000091
:1041280040F0020106297FF45AAF4046FEF7DCFC56
:10413800C4E70000F0B503AF2DE9000784B0D7E964
:10414800025A4FF0FF360090ACB206EB14240E2C46
:1041580036D8DFE804F008211035353535353535E2
:10416800353535352D0069461846FEF7EEFB04B0A7
:10417800BDE80007F0BDECB2032C54D80421024678
:10418800DFE804F0023B383F184604B0BDE80007FA
:10419800BDE8F040FEF729BCCDE90212684601A946
:1041A80001901846FEF70EFB04B0BDE80007F0BD0D
:1041B800184604B0BDE80007BDE8F040FEF792BA23
:1041C800188840F002000628D1D1D8680921198042
:1041D8000068BFF35F8F00285BD0997C01221C46E2
:1041E80003F0ACFDA0690068BFF35F8F002850D0D2
:1041F800A17F46E000F108020C219846136833B904
:1042080022E000F11002142198461368E3B14158E6
:104218001846CDE9010101A94046FEF745FB04B067
:10422800BDE80007F0BD984672B101EBC2090C4623
:10423800D1E900014B692946524698470028E8D140
:1042480004F108014945F2D1B8F8000040F0020035
:1042580006287FF48CAFD8F80C000921A8F80010C4
:104268000068BFF35F8FA0B198F81210012203F025
:1042780065FDD8F818000068BFF35F8F48B198F85B
:104288001E10012204B0BDE80007BDE8F04003F0AD
:1042980055BD40F6841040F6A812C2F22000C2F2C2
:1042A8002002222105F0BCFEF0B503AF2DE9000F76
:1042B80091B0D0F8DC40064606A888461546214647
:1042C80003F0A5FD96F8E220BDF81810032A0FD1D7
:1042D80000294FF0000018BF03290FD096F8E320FB
:1042E800042A00F0EA80042086F8E22086F8E30039
:1042F8000020DFE801F003113207030011B0BDE828
:10430800000FF0BD032086F8E32086F8E2000020C5
:1043180011B0BDE8000FF0BD204603F021FE0020DB
:104328004FF48061002D86F8E40086F8E000A6F8D6
:10433800E2103080E2D008EBC504A8F1080555F872
:10434800080F69688969884705F10800A042F6D115
:10435800002011B0BDE8000FF0BDBDF81A00BDF88F
:104368001C10BDF81E200390084340EA020905917D
:1043780004925FEAC9703CD00598C0071CBF30465C
:10438800FEF74AF90498C00707D10398C0072ED052
:1043980008A83146FDF7B2FF03E008A83146FEF74A
:1043A8003DF89DF82900042821D09DF8270080B108
:1043B80080281CD1DDE908120BABBDF82800CDE937
:1043C8000B124146ADF8340030462A46FFF729FD66
:1043D8000DE0DDE908120EABBDF82800CDE90E129C
:1043E8004146ADF8400030462A46FFF7DBFD29F08C
:1043F8000109E800B9F1000FCDE90185009047D027
:104408000298002854D0DDE90010A0F108054FF00B
:10441800020B012600EB010804982C461BEA000F4A
:104428000AD054F8080F61688A6A3146904704F147
:1044380008004045F5D10EE003981BEA000F0AD0AA
:104448002C4654F8080F6168CA6A3146904704F14F
:1044580008004045F5D105981BEA000F0DD066F01D
:104468007F04AA465AF8080FDAF804100A6B2146A6
:1044780090470AF108004045F4D129EA0B095FEAA0
:10448800094005D0701C0F2E4FEA4B0B0646C3D3CC
:10449800029868B1DDE90010A0F10805441855F844
:1044A800080F6968C969884705F10800A042F6D174
:1044B800012011B0BDE8000FF0BD40F6281040F60D
:1044C8004412C2F22000C2F220021C2105F04FFD66
:1044D800F0B503AF2DE9000F85B0044688680028C1
:1044E80040F0868092F821B04FF0FF3001F10C06C1
:1044F8008860002091468846CDE9000B029030463E
:1045080000210122002303F019FF0D46D8F80810F6
:10451800C00701F10101C8F8081040F081800029A6
:1045280066D14FF0FF308021C8F808000020CDE99F
:10453800000B012202903046802303F0FFFE8A46DA
:10454800D8F80810C00701F10101C8F808107BD19C
:10455800D8F80000002851D14FF0FF300029C8F8E2
:10456800000051D1C8F80800304603F0B6FED8F86C
:1045780008000130C8F808004CD34FF0FF30802104
:10458800C8F8080004F12400BFF35F8FC8F844603E
:10459800BFF35F8F06F0FBF9C4F8DC60AC46B9E8FE
:1045A8006E0004F1B4006EC099E86E006EC008F1A8
:1045B80044010020A161E160042184F8E200C4E91B
:1045C8002B00C4F8A400A4F81F0084F81EA0A4F8C7
:1045D8001CB0A4F8130084F812C0A4F810B020800E
:1045E800A4F8E310A4F8E00005B0BDE8000FF0BDA2
:1045F80040F6D800C2F2200005F050FC40F6081042
:10460800C2F2200005F04AFC40F6F800C2F2200091
:1046180005F044FC40F6E800C2F2200005F03EFC3C
:1046280040F6741040F65413C2F22000A7F11E029F
:10463800009040F2C070C2F22000C2F22003202194
:1046480007F81E5C05F0B0FC40F6641040F6541301
:10465800C2F22000A7F11D02009040F2C070C2F221
:104668002000C2F22003202107F81DAC05F09CFCB5
:1046780080B56F460830BDE8804000F057BC80B573
:104688006F460830BDE8804000F0AEBC80B56F468C
:1046980090F82E20C9B2914218BF80BDBDE8804075
:1046A80000F007B880B56F460830BDE8804000F0DC
:1046B80029BDD0B502AF8AB000F10801CDE90210DA
:1046C800D0E90021D0E95034022A18BF00219C42C9
:1046D800049116D169B3816A0968BFF35F8F91B3FA
:1046E80090F82E200020009007A80123012403F051
:1046F800CFFD9DF81C00012820D19DF81D000AB0AF
:10470800D0BD04AB099303AB089302AB028C0793AB
:10471800092988BF013A00F1C00105A807AB92B288
:1047280000F0B0F99DF8140050B19DF815000AB0DA
:10473800D0BD0021016008200AB0D0BD03980460F4
:1047480000200AB0D0BD40F6841040F6A812C2F28C
:104758002000C2F22002222105F062FCF0B503AF6E
:104768002DE900078046D1F8440101F1C0090D4642
:10477800C0F18004A3421AD9D5F84061BEB1802E99
:1047880001D180210DE07F2E48D81446821B09EB09
:10479800060148469A4606F0F4F8D5E95010224634
:1047A8005346401A0026C0F18004C5E95060A34270
:1047B80038BF1C46E4B12118814228D3812926D26A
:1047C80048441146224605F057FCD5F844012044D8
:1047D800C5F844012846FFF76CFFC0B241070ED167
:1047E8000020C8F8044088F80000BDE80007F0BDC4
:1047F8002846FFF75EFFC0B2410708BF002088F8CF
:104808000100012088F80000BDE80007F0BD40F66F
:1048180008338022C2F2200305F064FB40F6E82248
:104828003046C2F22002802105F0E6FBB0B502AFA7
:10483800D1E9003E734500F093801A4612F9014B06
:104848000A6004F07F0CB4F1FF3F1FDDBCF1000FDC
:104858000CD0BCF1010F40F08D80724547D012F8A2
:10486800013B0A60012101704370B0BD724577D0E9
:10487800134613F9014B0B6004F07F0CB4F1FF3FB2
:1048880039DD0021C0F804C00170B0BD724567D0A1
:1048980093F901409A1C0A6004F07F05B4F1FF3FC8
:1048A8004CEAC51CD2DC72455AD093F90240DA1C96
:1048B8000A6004F07F05B4F1FF3F4CEA853CC5DC93
:1048C80072454DD093F903401A1D0A6004F07F0524
:1048D800B4F1FF3F4CEA455CB8DC724540D01C7926
:1048E8005A1D0A600F2C40D84CEA047CAEE740F20F
:1048F80002410180B0BD734532D092F90140931C4A
:104908000B6004F07F05B4F1FF3F4CEAC51CB8DC2E
:10491800734525D092F90240D31C0B6004F07F0543
:10492800B4F1FF3F4CEA853CABDC734518D092F9F3
:104938000340131D0B6004F07F05B4F1FF3F4CEA00
:10494800455C9EDC73450BD0137905320A60102B49
:104958000BD24CEA037C0021C0F804C00170B0BD42
:104968000421022241700270B0BD0521022241706B
:104978000270B0BD0E21022241700270B0BD80B538
:104988006F46007840F2E0720B4640F64821C2F2CA
:104998002001C2F2200251F8201052F820201846B7
:1049A800BDE8804004F0E9BEF0B503AF4DF804BDA2
:1049B8008268012A2ED1C3684269934250D20569A0
:1049C800D0F818C0EC5C0134EC540CF102049442A9
:1049D8001CD80CF580739646934238BF9E46A34276
:1049E80036D3AEEB0403052B10D38B7991F807E08F
:1049F8000E7A89882B552B199970090A5E7083F8ED
:104A080004E0D9700CF10703934207D902205DF83E
:104A180004BBF0BD07205DF804BBF0BD944528D267
:104A2800072105F80C100CF1010191423FBF052246
:104A38006A54836108203CBF5DF804BBF0BD40F6B2
:104A4800B8230846C2F2200311461A4605F0D4FAE4
:104A580040F6C8232046C2F22003714605F042FA08
:104A680040F6D8241846C2F220041146224605F022
:104A7800C3FA40F6A8236046C2F2200311461A463C
:104A880005F0BAFAF0B503AF2DE9000B84B00D4676
:104A98008146D1E920011646091A914238BF0E46CF
:104AA800311881423DD380293BD81C68984622683A
:104AB800116A0968BFF35F8FD1B392F826202B18CB
:104AC80002A8009603F0E4FB9DF8080001280AD12B
:104AD8009DF80900012189F8001089F8010004B047
:104AE800BDE8000BF0BD2068008B864205D1D8F8E0
:104AF80008000068411C022000E00120D8F80420CA
:104B0800C9F804601268C2E900010021D5F88000E4
:104B180089F800103044C5F8800004B0BDE8000BE7
:104B2800F0BD40F6F8238022C2F2200305F0DAF93E
:104B380040F6841040F6A812C2F22000C2F2200209
:104B4800222105F06DFAF0B503AF2DE9000B82B014
:104B58000646D1F884000C46C0F180018A4223D968
:104B6800D4F88050291A80318A4206D90020307042
:104B7800706002B0BDE8000BF0BD802D01D180212E
:104B88000CE07F2D56D89146421B61192046984665
:104B980005F0F7FED4E920104A464346401A00259E
:104BA800C0F18001C4E9205091422DD3811824D24C
:104BB800802922D81B6859690968BFF35F8F71B3D0
:104BC8009D7E2318009230462A4603F0A4F93078D7
:104BD800012804BF7178002903D00028C9D1706862
:104BE80002E0002030707060D4F884100844C4F8E3
:104BF800840002B0BDE8000BF0BD40F6703380229F
:104C0800C2F2200305F06EF940F6183040F6603223
:104C1800C2F22000C2F22002452105F001FA40F656
:104C2800841040F6A812C2F22000C2F2200222210B
:104C380005F0F6F940F6E8222846C2F22002802163
:104C480005F0DAF9F0B503AF2DE9000F85B0054698
:104C58000868002840F0A38091F804B00C468868E2
:104C68000BF101012171002840F093804FF0FF30D3
:104C780004F10C069146A060FF200821032202904F
:104C8800CDE9002130468021002203F057FB8A46F7
:104C9800A168C00701F10101A16040F08680206889
:104CA80000287CD194F80480002908F101002071C3
:104CB8006FD14FF0FF300221A0600020CDE900192C
:104CC800002102903046002203F038FBA268C0079A
:104CD80002F10102A2607CD1002A5AD14FF0FF30C4
:104CE8000391A060002102200291CDE9000930461D
:104CF8008021002203F022FBC00701BF85F82CB0F9
:104D08004FF40070A5F8270085F8261001BFA5F814
:104D1800249004F14401296285F82D8001BF40F2F6
:104D2800FF32A5F80F2085F80EA0082201BFAA813E
:104D3800A960A5F81B00039801BFA876A5F81890EC
:104D48006961002001BFE885AA80A871A06801BF39
:104D58004FF4FA5129600130A06002BF05B0BDE8E8
:104D6800000FF0BDA06840F68033A7F11D0207F8D8
:104D78001D1C0130A06040F6A030C2F22003C2F230
:104D880020000F21009040F69030C2F2200005F07C
:104D98000BF940F6D800C2F2200005F07FF840F683
:104DA8001810C2F2200005F079F840F6B03040F64D
:104DB8008033C2F22000A7F11F02009040F6903025
:104DC800C2F22000C2F220030F2107F81FAC05F041
:104DD800EBF840F6A03040F68033C2F22000A7F18D
:104DE8001E02009040F6903007F81E1CC2F2200008
:104DF800C2F220030F2105F0D7F880B56F4682B0C4
:104E080044F2B820C2F2000000F11801684601F02F
:104E1800C9F99DF8000058B9019841F28931401A42
:104E28004EF66A61CFF6FF71884284BF02B080BD3A
:104E380040F62D4040F65842C2F22000C2F220024D
:104E4800292105F0EDF8F0B503AF2DE9000B82B08C
:104E580044F2B8246846C2F2000404F1180101F0D3
:104E6800A1F968462146DDF804809DF8009001F01C
:104E780099F904F10C016846019D9DF8006001F064
:104E880091F9002E18BF0025B9F1000F18D1A845D7
:104E980016D99DF800100198002918BF00208542F6
:104EA80082BF02B0BDE8000BF0BD40F6005040F6EE
:104EB8001C52C2F22000C2F22002192105F0B0F8FB
:104EC80040F6D54040F6F042C2F22000C2F220027D
:104ED800192105F0A5F880B56F4640F62C5040F62C
:104EE8006452C2F22000C2F220026F2105F09EF83F
:104EF80080B56F46007840F2E0720B4640F6D85114
:104F0800C2F22001C2F2200251F8201052F82020EB
:104F18001846BDE8804004F030BC80B56F460020DC
:104F280080BD80B56F46D0E9000180BDD0B502AF25
:104F3800537A012B07D1137A012B02BF90F82C303A
:104F480054889C4200D0D0BD9379212B04BF92880D
:104F5800072A28D0088840F002000628F3D1C8683C
:104F680009220A800068BFF35F8F88B18A7C0C46EB
:104F78001146012202F0E2FEA0690068BFF35F8FCC
:104F880000281FBFA17F0122BDE8D04002F0D6BE95
:104F980040F6841040F6A812C2F22000C2F22002A5
:104FA800222105F03DF80A88042A18BFD0BDCA8816
:104FB800002390F804C0012490F805E0072AC1F8FE
:104FC800AC3083790068486208460C8081F8283044
:104FD80081F829E081F82AC028BF0722C1F8B0204B
:104FE800BDE8D040FDF7C9BAD0B502AF84B0537A56
:104FF800012B07D1137A012B02BF90F82C3054886B
:105008009C4201D004B0D0BD9379002B5BD0202BFB
:105018000ED0222B2CD112780B8802F0010480F8D4
:105028002E40C2F34002062B80F82F20EAD14DE033
:10503800D1F8B020812A5CD2062A19D991F8282003
:1050480091F8294091F82AE0032A4B6AB1F800C088
:1050580003604FF0000380F804E028BF1A46052CCF
:10506800827138BF2346BCF1060F4371CAD12DE0C7
:10507800088840F002000628C4D1C86809220A80BE
:105088000068BFF35F8F98B18A7C0C4611460122F5
:1050980002F054FEA0690068BFF35F8F00281FBFAD
:1050A800A17F012204B0BDE8D04018BF02F046BE7F
:1050B80040F6841040F6A812C2F22000C2F2200284
:1050C800222104F0ADFF088806289BD1886903686F
:1050D800BFF35F8F002BEBD08A7F0020009002A8DF
:1050E8000C461946012303F0D3F80820208004B0A9
:1050F800D0BD40F258731146C2F22003002080222E
:1051080004F0F0FEF0B503AF4DF8048D84B090F8CC
:105118002C60804600250220CDE900050C46084693
:1051280031460222022303F050FCC0B2082863D1A2
:105138002046314602220223009503F039FEC0B210
:10514800082859D140F6D2522046C2F22002242122
:10515800032303F095FCC0B208284DD140F2334236
:105168002046C2F220022421022303F089FCC0B2A7
:10517800082841D10620A7F1160207F8156C24214A
:1051880098F82D60032307F8160C204607F8146CCE
:1051980003F076FCC0B208282ED10120A7F1130233
:1051A80027F8130C20462421032307F8116C03F079
:1051B80067FCC0B208281FD108F108012046FFF794
:1051C800F3FBC1B2082917D10020314600902046D0
:1051D8000A22002303F0ECFDC0B208280CD108F124
:1051E80020012046FFF7E0FBC1B2082904D108F1ED
:1051F80014012046FFF7D8FB04B05DF8048BF0BD1E
:10520800F0B503AF4DF804BD84B0044600208DF816
:105218000D00CDF80900CDF80500D00940EA43603B
:105228008DF8042050EAD3114ED042F080018DF859
:105238000410910B8DF8050041EA834151EA933639
:1052480044D040F080008DF80500500D8DF8061010
:1052580040EAC32050EA53563AD041F080018DF815
:105268000610110F8DF8070041EA031151EA137275
:1052780030D040F080008DF80700D8088DF808106D
:105288002AD041F080018DF80810990A8DF809009C
:1052980024D040F080008DF80900580C8DF80A10D1
:1052A8001ED041F080018DF80A10190E8DF80B0000
:1052B80018D040F08000B3F1FF3F8DF80C108DF846
:1052C8000B0011DD092513E0012511E002250FE08F
:1052D80003250DE004250BE0052509E0062507E078
:1052E800072505E0082503E001200A258DF80D00B3
:1052F800D4E90160801B854204D9022004B05DF81E
:1053080004BBF0BD01A930462A4604F0B5FE701969
:105318006060102004B05DF804BBF0BDF0B503AFC9
:105328004DF804BD82B00A78012A13D1D0E90143AF
:10533800A34245D049780125224602F8015B9A42EA
:1053480042603DD0A21C42606170102002B05DF83E
:1053580004BBF0BDD0E90142A24231D04968002324
:1053680004F8013B47F8143CCB09446007F8151CC6
:1053780022D041F0800507F8155C8D0B07F8143C26
:1053880023D043F0800307F8143C4B0D07F8135C57
:105398002DD0090F45F0800507F8123C07F8135C7B
:1053A8002AD0052507F8111C43F0800107F8121CC4
:1053B800111B8D4204D80CE00125111B8D4208D920
:1053C800022002B05DF804BBF0BD0225111B8D421E
:1053D800F6D8A7F11501064620462A4604F04CFEE9
:1053E80060197060102002B05DF804BBF0BD0325A1
:1053F800111B8D42EDD9E3E70425111B8D42DFD83F
:10540800E7E7000080B56F46C9B2DFE801F0021592
:10541800080FD0E901128A4218D0002211E0D0E921
:10542800011302228B420CD1104680BDD0E9011233
:105438008A420BD0032204E0D0E901128A4205D047
:1054480001220A7001314160102080BD022080BD18
:10545800F0B503AF4DF804BD82B00446002027F82C
:10546800120CC1F3C81007F8131CA8B141F0800250
:10547800C1F3813107F8120C07F8132CB9B10325D1
:1054880040F0800007F8111C07F8120CD4E90160FD
:10549800801B854206D810E00125D4E90160801BF5
:1054A80085420AD9022002B05DF804BBF0BD02258E
:1054B800D4E90160801B8542F4D8A7F11301304676
:1054C8002A4604F0D9FD70196060102002B05DF81A
:1054D80004BBF0BDF0B503AF2DE9000782B08146EB
:1054E800002047F81C0C1446D00907F81D2C25D0BD
:1054F80044F0800207F81D2CA20B07F81C0C25D0DD
:1055080040F0800007F81C0C600D07F81B2C25D014
:1055180042F0800207F81B2C220F07F81A0C29D03A
:105528004FF0050A40F0800007F8192C07F81A0C0C
:10553800D9E90156701B824517D822E04FF0010ABD
:10554800D9E90156701B82450FD81AE04FF0020ABC
:10555800D9E90156701B824507D812E04FF0030ABB
:10556800D9E90156701B82450BD9022002B0BDE86B
:105578000007F0BD4FF0040AD9E90156701B8245B7
:10558800F3D88846A7F11D012846524604F074FD59
:105598005544C9F80450701B844204D9022002B053
:1055A800BDE80007F0BD28464146224604F064FDE8
:1055B8002819C9F80400102002B0BDE80007F0BDA2
:1055C800F0B503AF4DF804BD82B00446002047F89B
:1055D800140CC80907F8151C24D041F0800207F8FC
:1055E800152C8A0B07F8140C23D040F0800007F81C
:1055F800140C480D07F8132C22D0090F42F0800232
:1056080007F8120C07F8132C25D0052540F0800068
:1056180007F8111C07F8120CD4E90160801B8542B9
:1056280014D81EE00125D4E90160801B85420DD8FD
:1056380017E00225D4E90160801B854206D810E0F6
:105648000325D4E90160801B85420AD9022002B0F3
:105658005DF804BBF0BD0425D4E90160801B8542D8
:10566800F4D8A7F1150130462A4604F005FD701953
:105678006060102002B05DF804BBF0BDF0B503AF68
:105688002DE900070268DFE802F0033C1D260C4BF9
:10569800C9B2AA291BD1012101600020BDE8000779
:1056A800F0BDD0E90123B3F5807F3CBFC51829734D
:1056B800591C914281600AD1052101600020BDE892
:1056C8000007F0BD032209020260A0F80C110020B7
:1056D800BDE80007F0BDB0F80C21C9B21143A0F82D
:1056E8000C11A1F2011292B2B2F57F4F12D300222F
:1056F800042389B28260C0E900310020BDE80007B8
:10570800F0BDC9B2552905D1022101600020BDE8CC
:105718000007F0BD002101600020BDE80007F0BDD2
:105728008E4641684FF0000C61B1A1F2011212F5EA
:10573800807F40D301F00308042906D200244FF0EB
:10574800000A17E04FF0000A29E001F4FE7900246E
:105758004FF0000A06190434A145327B757B82EAB2
:105768000A02B37B82EA0502F67B82EA030286EA32
:10577800020AEFD1B8F1000F11D000F10C05B8F111
:10578800010F2E5D8AEA060A09D02C44B8F1020FEF
:1057980065788AEA050A1CBFA2788AEA020A40F8F4
:1057A8000CCB5FFA8EF25FFA8AF3934218BF604619
:1057B800BDE80007F0BD40F6F8524FF48070C2F221
:1057C80020024FF4807104F017FC0000F0B503AF1D
:1057D8002DE9000F8BB0042B03D80221417000F093
:1057E80012BC45F2AA5693462BF8046B0BEB030642
:1057F800CDF814B0053E07960E78DFE816F00800DD
:10580800C700510078002C00EC0011019000052B16
:1058180000F0F5834E88002502F105091571ADF8F1
:105828002150F509CDF818908DF8206000F09D8181
:10583800F4B2B60B44F080048DF821508DF8204066
:1058480000F0F481EDB28DF8226045F08006032562
:105858008DF82160EBE1052B00F0D183042602F1DD
:105868000508167100254E88ADF82150CDF818802E
:10587800F5098DF8206000F07281F4B2B60B44F09F
:1058880080048DF821508DF8204000F07481EDB22D
:105898008DF8226045F0800603258DF821606BE1C4
:1058A8004FF0020C052B00F0AC834E8802F105097D
:1058B800002582F804C0ADF82150F509CDF81890FC
:1058C8008DF8206000F04D81F4B2B60B44F08004EE
:1058D8008DF821508DF8204000F07981EDB28DF8D7
:1058E800226045F0800603258DF8216070E1052BC4
:1058F80000F0858303211171511DA1EB0B0E8B451F
:1059080000F05B83A1EB0B04ABEB010104F0030C8B
:1059180011F1040F40F2F6804FF0000808E1052B62
:1059280000F06D83D1E90284072602F1050AE50932
:1059380016714FF00006CDF818A08DF82040CDF86C
:10594800216000F0108144F080068DF82060A60BDD
:105958008DF8215000F0688145F080058DF82150C0
:10596800650D8DF8226000F0FE8146F080068DF806
:105978002260260F8DF8235000F064828DF8246091
:1059880045F0800605258DF823605CE2052B00F0C4
:1059980036834E8802F1050800240125ADF8214020
:1059A800F4091571CDF818808DF8206000F07B811E
:1059B800F5B2B60B45F080058DF821408DF82050E2
:1059C80000F07081E5B28DF8226045F0800603256D
:1059D8008DF8216067E1052B00F01183052602F19F
:1059E8000509167100254E88ADF82150CDF818909C
:1059F800F5098DF8206000F0BA80F4B2B60B44F0D7
:105A080080048DF821508DF8204000F07581EDB2AA
:105A18008DF8226045F0800603258DF821606CE141
:105A2800052B00F0EC82D1E9044C062616710026FD
:105A38008DF82960CDF82560CDF82160E60946EAA1
:105A48004C688DF8204058EADC1600F0928044F04B
:105A580080068DF82060A60B46EA8C4E5EEA9C36DE
:105A68008DF8218000F0738148F080068DF8216060
:105A7800660D46EACC2858EA5C568DF822E000F01C
:105A880074814EF080068DF82260260F46EA0C14C9
:105A980054EA1C768DF8238000F0208248F08006B6
:105AA8008DF823605FEADC068DF8244000F01D8243
:105AB80044F080048DF824405FEA9C248DF825602A
:105AC80000F0428246F080068DF825605FEA5C4669
:105AD8008DF8264000F0878244F080048DF8264037
:105AE8005FEA1C648DF8276000F07F8246F080062C
:105AF800BCF1FF3F8DF828408DF8276040F377828E
:105B0800092478E224F003014FF000081BF8046B25
:105B180004391BF8035C86EA08061BF8024C85EA80
:105B280006051BF8019C84EA050489EA0408EDD1FE
:105B3800BCF1000F1EBF9BF8001088EA0108BCF1F9
:105B4800010F00F03C829BF80110BCF1020F88EABB
:105B580001081CBF9BF8021088EA01082FE2012502
:105B68000AE0012534E001256DE101255FE001250A
:105B7800C3E001243FE202259C1FAC42C0F03F82F3
:105B8800CDE9032308AA83460E46114640462A4615
:105B980004F072FAB0880021ADF8211032468DF871
:105BA8002000C10900F0D580C3B2800B43F0800308
:105BB8008DF821108DF8203000F0D9800326C9B265
:105BC8008DF8220041F080008DF82100D0E00225F8
:105BD8009C1FAC42C0F01582CDE9032308AA834676
:105BE8008846114648462A4604F046FAB8F80400A2
:105BF8000021ADF8211042468DF82000C10900F0BF
:105C0800AA80C3B2800B43F080038DF821108DF871
:105C1800203000F0C1800326C9B28DF8220041F07F
:105C280080008DF82100B8E002250CE10225A3F1DF
:105C38000608A845C0F0E381CDE9032308AA8346F6
:105C48008A46114648462A4604F016FADAE9022638
:105C58000020CDF82100F0098DF820607DD046F0B5
:105C680080018DF82010B10B8DF8210000F0B38071
:105C780040F080008DF82100700D8DF8221000F0A2
:105C88002F8141F080018DF82210310F8DF823000B
:105C980000F02D81052440F080008DF824108DF847
:105CA800230025E102259C1FAC42C0F0A881CDE964
:105CB800032308AA83460E46114640462A4604F0A6
:105CC800DBF9B0880021ADF8211032468DF82000AC
:105CD800C10944D0C3B2800B43F080038DF8211072
:105CE8008DF8203079D00326C9B28DF8220041F012
:105CF80080008DF8210071E002259C1FAC42C0F0A5
:105D08007E81CDE9032308AA834688461146484682
:105D18002A4604F0B1F9B8F804000021ADF82110C2
:105D280042468DF82000C1091BD0C3B2800B43F056
:105D380080038DF821108DF8203064D00326C9B275
:105D48008DF8220041F080008DF821005CE00224EB
:105D580051E101260CE001261FE00124C8E00126DC
:105D68003CE0012650E003256DE0032443E10226D0
:105D7800611B58468E4200F2428108EB050408A9CF
:105D880015463246204604F077F9A019697806903E
:105D980005A8FFF737FBFEE00226601B864200F2EB
:105DA800E98009EB050408A915463246204604F0A7
:105DB80063F9A019D5E90212069005A8FFF78AFB36
:105DC8008446C0B2102840F0BA8008F1100105A836
:105DD800FFF7A4FADFE002248AE00226611B584696
:105DE8008E4200F20C8108EB050408A915463246DC
:105DF800204604F041F9A019D5E90212069005A839
:105E0800FFF768FBC7E00226601B864200F2B280FB
:105E180009EB050408A915463246204604F02CF97A
:105E2800A019D5E90223069005A8FFF7E9F98446E9
:105E3800C0B2102840F08380D8E9042305A8FFF7F2
:105E4800DFF9A8E00425A3F10609A945C0F0D78029
:105E58000DF1080C83468CE80E0008A950462A4626
:105E680004F00AF9A9EB0500844200F283800AEBEA
:105E7800050041462246019004F0FEF80298D0E958
:105E880004860020F109CDF821008DF8206021D08A
:105E980046F080008DF82000B20B58468DF821108E
:105EA80020D041F080018DF82110710D8DF822204D
:105EB80047D042F080028DF82220320F8DF823104F
:105EC80044D04FF0050A41F080018DF824208DF868
:105ED80023103DE04FF0010A584639E004248AE0D7
:105EE800032405E04FF0020A32E0052483E004248D
:105EF800A8EB050084423DD8A94408A9029222468D
:105F0800484604F0B9F82819A8EB0000864231D8B1
:105F18004C4402993246204604F0AEF8A019BAF86B
:105F28000410069005A8FFF793FA8446C0B210281B
:105F380005D1BAF8061005A8FFF78AFA2BE05846EB
:105F48005FE04FF0030A03E0062454E04FF0040A30
:105F58002544A9EB05018A4551D8019808A952465C
:105F68000444204604F088F805EB0A00A9EB000079
:105F7800864203D94FF0020C584642E05444414649
:105F88003246204604F078F802984168A019069035
:105F980005A8FFF715FBDDE903238446C0B21028E6
:105FA80058462ED1DDF814B0BBF1000F27D0069962
:105FB800A1EB0B0E8B457FF4A5AC4FF000089EFAC1
:105FC8008EF1090C51800EF10401994280F0E280B3
:105FD80002F801800EF105014160002101700BB04B
:105FE800BDE8000FF0BD072405E0082403E0012602
:105FF8000A248DF82960A3F1060AA24509D24FF0B8
:10600800020C80F801C0012101700BB0BDE8000F3F
:10601800F0BD0DF1080C02F105088CE80D0008AA86
:10602800894611464046224604F026F8B9F8180079
:106038000021ADF821108DF82000C10911D0C2B29D
:10604800800B42F080028DF821108DF820200AD0B4
:106058000326C9B28DF8220041F080008DF8210096
:1060680002E0012600E00226AAEB040086427DD861
:10607800A04408A93246404603F0FEFFB9F81A00CA
:106088000021ADF821104A468DF82000C10912D030
:10609800C3B2800B43F080038DF821108DF82030B7
:1060A8000CD04FF00309C9B28DF8220041F08000EE
:1060B8008DF8210004E04FF0010901E04FF00209DA
:1060C8003519AAEB0500814550D808EB060008A948
:1060D80014464A46019003F0CFFFD4E90224002079
:1060E800CDF82100E0098DF8204020D044F080014F
:1060F8008DF82010A10B8DF821001BD040F08000F6
:106108008DF82100600D8DF8221016D041F0800125
:106118008DF82210210F8DF8230011D04FF00508BB
:1061280040F080008DF824108DF823000AE04FF02D
:10613800010807E04FF0020804E04FF0030801E00F
:106148004FF0040809EB0506AAEB060080450DD8B8
:10615800019808A9154642468144484603F08CFF39
:1061680006EB0800AAEB0000844203D94FF0020CAA
:10617800029846E709EB080629462246304603F00E
:106188007BFF02AB31190DCBA1EB0B0E8B457FF4D6
:10619800B9AB12E740F608620846C2F22002194677
:1061A80003F02AFF80B56F468968002202704160BB
:1061B80080BD80B56F460A782AB140F618601B2169
:1061C800C2F2200080BD4968816000201B2180BD8B
:1061D800F0B503AF2DE9000B82B00446006888468D
:1061E800416D21F003014165104640F2E24100F0A3
:1061F8008AFDD8F800504FF400504FF480514022E7
:106208004FF4803300E069612E69B6040ED52E691B
:10621800F604F8D52E69B6F1FF3FF5DC2E69F603D2
:1062280006D42E69760605D46A61EDE76861EBE766
:10623800AB61E9E740F640062146C2F2200600229B
:10624800304600F060FCB01C2146002200F05BFCE8
:10625800301D2146002200F056FCB01D21460022C8
:1062680000F051FC06F108002146002200F04BFC2A
:1062780006F10A002146002200F045FC06F10C0058
:106288002146002200F03FFC06F10E0021460022C4
:1062980000F039FC06F110002146002200F033FC22
:1062A80006F112002146002200F02DFC06F1140030
:1062B8002146002200F027FC06F1160021460022A4
:1062C80000F021FC06F118002146002200F01BFC1A
:1062D80006F11A002146002200F015FC06F11C0008
:1062E8002146002200F00FFC06F11E002146002284
:1062F80000F009FC2068416989010FD5416921F046
:1063080000714161816C41B1816C00291CBF816CB5
:10631800002902D0816C0029F4D12068416901224A
:1063280021F0605141612068816962F30D3181611A
:10633800816C41B1816C00291CBF816C002902D09D
:10634800816C0029F4D12068416941F000714161F4
:10635800816C41B1816C00291CBF816C002902D07D
:10636800816C0029F4D14FF48050286064202860A3
:106378004FF4005068602868002809D4286800286D
:106388005CBF2868002803D42868B0F1FF3FF2DC1E
:1063980020680122016962F302010161816C41B147
:1063A800816C00291CBF816C002902D0816C0029F6
:1063B800F4D12068416921F4E0514161816C41B117
:1063C800816C00291CBF816C002902D0816C0029D6
:1063D800F4D12068816941F44021816120684169D4
:1063E80021F000714161816C41B1816C00291CBFB1
:1063F800816C002902D0816C0029F4D1206840F614
:106408003366C2F220060022416941F440714161BD
:106418003046214600F077FBB01C2146002200F0F0
:1064280072FB301D2146002200F06DFBB01D214695
:10643800002200F068FB2068022540F63B66002237
:10644800C2F22006816B65F3D84181632068816BB5
:1064580041F4802181633046214600F054FBB01C92
:106468002146002200F04FFB301D2146002200F09B
:106478004AFBB01D2146002200F045FB206840F68B
:1064880043664FF00309C2F220060022816965F3D2
:10649800051181612068816969F39C6181613046D9
:1064A800214600F030FBB01C2146002200F02BFBF7
:1064B800301D2146002200F026FBB01D2146002297
:1064C80000F021FB06F108002146002200F01BFB2A
:1064D8002068172240F6FA16C2F22006C16962F354
:1064E8000501C16120680022C16941F04001C16114
:1064F8003046214600F007FBB01C2146002200F080
:1065080002FB301D2146002200F0FDFAB01D214695
:10651800002200F0F8FA06F108002146002200F0F7
:10652800F2FA06F10A002146002200F0ECFA06F120
:106538000C002146002200F0E6FA06F10E00214682
:10654800002200F0E0FA206840F62C1242F21073A4
:10655800416A41F0400141622068416A65F30501E2
:10656800416201201C210090404600F0E0FA40F60C
:106578000510214627F81A0CA7F11A00002200F08E
:10658800C2FA20680E22C16965F38B21C1612068B7
:1065980040F64D65C2F22005816A69F3881181626F
:1065A8002068816A62F30501816228462146032238
:1065B80000F0A9FAA81C2146032200F0A4FA281D1D
:1065C8002146032200F09FFAA81D2146032200F06D
:1065D8009AFA05F108002146032200F094FA05F121
:1065E8000A002146032200F08EFA05F10C0021462C
:1065F800032200F088FA05F10E002146032200F07C
:1066080082FA05F110002146032200F07CFA05F118
:1066180012002146032200F076FA05F11400214603
:10662800032200F070FA05F116002146032200F05B
:106638006AFA05F118002146032200F064FA05F110
:106648001A002146032200F05EFA05F11C002146DB
:10665800032200F058FA05F11E002146032200F03B
:1066680052FA05F120002146032200F04CFA05F108
:1066780022002146032200F046FA05F124002146B3
:10668800032200F040FA05F126002146032200F01B
:106698003AFA05F128002146032200F034FA05F100
:1066A8002A002146032200F02EFA05F12C0021468B
:1066B800032200F028FA05F12E002146032200F0FB
:1066C80022FA05F130002146032200F01CFA05F1F8
:1066D80032002146032200F016FA05F13400214663
:1066E800032200F010FA05F136002146032200F0DB
:1066F8000AFA05F138002146032200F004FA05F1F0
:106708003A002146032200F0FEF905F13C0021463B
:10671800032200F0F8F905F13E002146032200F0BB
:10672800F2F905F140002146032200F0ECF905F1E9
:1067380042002146032200F0E6F905F14400214613
:10674800032200F0E0F905F146002146032200F09B
:10675800DAF905F148002146032200F0D4F905F1E1
:106768004A002146032200F0CEF905F14C002146EB
:10677800032200F0C8F905F14E002146032200F07B
:10678800C2F902B0BDE8000BF0BD80B56F4648F213
:1067980048110068C4F21F0105230A6863F3030265
:1067A8000A60416841F008014160032180BDF0B5ED
:1067B80003AF2DE9000F81B047F25C414FF0010CA7
:1067C800C2F20001BFF35F8FD1E84F2FC1E843CF7A
:1067D800002BF9D1BFF35F8F002A01BF48F20001F7
:1067E800C4F20D010022C4F22F0201BF02F5542C9D
:1067F80002F5502E02F54C28A1F5004401BFA1F581
:10680800003501F5F61601F5F413C0E9683601BF45
:10681800C0E96A54C0E96C8EC0E96EC101F5005E3A
:1068280001BF01F5805640F2040CC4F22E0C01F5AC
:10683800021401BF0CF5FE7501F5004300F5C078A0
:1068480088E8380001BF00F5C67383E81210C0E974
:10685800666EA1F5404C01BF01F5881E01F586184A
:1068680001F5841401F5821301BF01F5003602F524
:106878001025C0E9585600F5B47501BF85E81A41DE
:10688800C0F87CC1A1F5804C02F51C2E01BF02F5B1
:10689800182802F51424A1F5E03301F5282601BFD4
:1068A80001F5EE15C0E9505600F5A47585E81841C4
:1068B80001BFC0E9562C02F5782802F5742902F5C3
:1068C800702401BF02F56C234CF2000CC4F2070CD3
:1068D8000CF5004601BF01F5E03E01F58E15C0E953
:1068E800485EC0E94A6101BF00F5987585E818025D
:1068F800C0F83C8101F5482801BF01F5442901F59C
:10690800402A01F53C2B01F5382301BF01F5342459
:1069180001F5302501F52C26C0E9406501BFC0E925
:106928004243C0E944BAC0E9469802F5302801BF9D
:1069380002F52C2902F5282A02F5242B02F58613E4
:1069480001BF02F5841402F5821502F58016C0E92C
:10695800386501BFC0E93A43C0E93CBAC0E93E988E
:1069680001F5F01801BF01F59219A1F5503AA1F50A
:10697800403BA1F5303301BF01F5901401F58C15AA
:1069880001F58A16C0E9306501BFC0E93243C0E9A4
:1069980034BAC0E9369844F2000B01BFC4F2002BA8
:1069A8000BF500490BF5804A4FF0844801BF01F50B
:1069B8006C2601F5682401F56425A1F5C03301BFF3
:1069C800C0E9283500F1A80383E85009C0E92EA9D9
:1069D80001BF01F5602801F5E61901F5E81AA1F5EE
:1069E800203601BF0BF5E03301F5582401F5542595
:1069F800C0E9205401BF00F1880484E84804C0E9D4
:106A0800259EC0F89C8001BFA1F5103E01F5FE1837
:106A180001F5001902F5642A01BF02F5602302F5A9
:106A28005C2602F5582501F5A03401BF00F1600B82
:106A38008BE87000C0E91B3AC0E91D9801BFC0F897
:106A48007CE001F5803E02F540480CF5804901BF25
:106A580001F5804A01F5F21344F20806C4F209066A
:106A680001BF06F1100506F10804C0E91064C0E989
:106A7800125301BFC0E914A9C0E9168E0CF5C03E37
:106A880001F5103801BF01F5801901F57C2401F5E5
:106A9800782302F57C2601BF02F54825C0E908568F
:106AA80000F1280585E8180201BFC0E90D81C0F88A
:106AB8003CE002F5442E02F50C2601BF01F5D21583
:106AC80001F5242402F54022A1F5803301BFA1F588
:106AD800A031C0E90013C0E9022C103001BF80E8E2
:106AE800704001B0BDE8000FF0BD40F69D6040F673
:106AF800D462C2F22000C2F22002352103F090FADB
:106B080080B56F46FEE780B56F4603784078096820
:106B180001EB83014000C0B20323D1F868C0834071
:106B280002FA00F02CEA03031843886680BDF0B52A
:106B380003AF2DE900078046A1F11B001C2880F057
:106B480088801D4616469A4200F28E80002D00F07D
:106B5800968043F200698A46C0F26E192A46A6FB5F
:106B68000901002304F014F80AFB09004CF67F1110
:106B7800CDF64111084443F27F61C2F2BE618842FA
:106B88005CD8D7F808C04FF48032D8F800004FF42A
:106B980080534FF4005100E08167046FE40307D588
:106BA800046FA404F8D4046FE40403D44367F4E73F
:106BB8004267F2E79CFAACF140F6E472B1FA81F16F
:106BC800C0F88060C0F89050C2F2200252F821202C
:106BD80040F6D076C0F870A0036FC2F2200656F8CF
:106BE800211023F4C0131A430267D0F8702147F626
:106BF800FF73CFF67F731A404FF4805342EAC152B5
:106C080042EAC131C0F870114FF400514FF480329C
:106C180000E08367066FB6040BD5066FF604F8D458
:106C2800066FB6F1FF3FF5DC066FF60303D5826702
:106C3800F0E74167EEE7BDE80007F0BD40F68C706D
:106C480040F6C072C2F22000C2F22002652103F0B1
:106C5800EDF940F6E46040F62872C2F22000C2F274
:106C68002002892103F0E2F940F6387040F66C7290
:106C7800C2F22000C2F22002672103F0D7F940F6E1
:106C88007C70C2F2200003F0ADF980B56F4680BD7C
:106C9800F0B503AF2DE9000FADF5057D0DF1040941
:106CA80080464FF40071484603F071FE44F2E02A32
:106CB8000DF5017BC2F2000A00246FF00F0556465D
:106CC800DAE96001CDE9830158468294819602F0A1
:106CD8005CF90DF5017C09EB050010350C369CE8D4
:106CE8000E1001341030B5F5F87F80E80E10E7D1AA
:106CF80001A940464FF4007203F0FCFE0DF5057D36
:106D0800BDE8000FF0BD80B56F46B1F5487F98BF6C
:106D18004FF4487140F22762914228BF114644F26D
:106D2800AF73A1F5487100688AB25A43C368A1EBF2
:106D3800124189B2490801EB124123F01F0242EACD
:106D48001111C16004E00168B1F1FF3FD8BF80BDF7
:106D58000168002905D4016800295CBF0168002981
:106D6800F1D580BDF0B503AF2DE9000B44F2E04347
:106D7800C4F21F031B68C3F30B2E4FEA135CE645EE
:106D88001FBF0124C1F88841DBB24FF47A781FBFD6
:106D980003FB08F9ACEB0E04D1F8906149F658658D
:106DA8001FBFCFF6FF7513FB085393FBF4F3C2EA3A
:106DB80006021FBFC1F8902180E80A40C0F80C9075
:106DC800BDE8000B18BFF0BD40F6F870C2F2200015
:106DD80003F008F9F0B503AF2DE9000F83B0D1F83F
:106DE80000B00A46DBF80010002940F0D781D2E94C
:106DF80001514FF0FF33CBF80030D2682B78DBF825
:106E080008405E0046EAD316F3B29C423CD9DBF850
:106E18001C4006F00F062468BFF35F8FA4B224FA63
:106E280006F6F60730D0DBF818609E4240F2C281C1
:106E38002B785E0635D05E00DBF8085046EAD3169C
:106E4800F3B29D4240F2B081DBF81C5006F00F0609
:106E58002D68BFF35F8FADB225FA06F6F60700F08E
:106E6800A381DBF818609E4240F2AC81DBF8146025
:106E780003EB830306EB830ADAF80C60766816F0F6
:106E8800680F20D0072100E0052141700121DBF8BF
:106E980000200170501CCBF8000003B0BDE8000FC3
:106EA800F0BDDBF80830002B1FBFDBF81C301B6877
:106EB800BFF35F8F5FEAC3731BD141F22800C2F2B0
:106EC800200003F067F8D9469AF8104059F820CF07
:106ED80004F01F0566B20124DCF8B831B6F1FF3FB3
:106EE800D8BF1B0CAC4023401B0600F0B480002127
:106EF800CBE7DBF81830002B00F06C81DA46012470
:106F08005AF8203F082A5AF80C9CD3F8ACE199F8B3
:106F1800106006F01F0C04FA0CF556D315EA0E049F
:106F280053D0D9F80860C3F8AC51D3F8402142F4E3
:106F38000052C3F84021D6E90A25D3F84041A404F9
:106F480025D4D3F8402142F40052C3F84021D6E9B1
:106F58000A25D3F84041A4045FBFD3F8402142F486
:106F68000052C3F84021D6E90A255CBFD3F8404156
:106F78005FEA84440BD4D3F8402142F40052C3F8AA
:106F88004021D6E90A25D3F84041A404CDD5D3F849
:106F9800406126F40056C3F840614D6001250A603F
:106FA80099F81020DAF8001053B202F01F02D1F855
:106FB800B861B3F1FF3FD8BF360C95402E40360676
:106FC80000F095804FF00808E4E0D9F80C406468B8
:106FD80014F0680F7FF456AFD3F8B84176B2B6F123
:106FE800FF3FD8BF240C25402D067FF480AFB6F1B3
:106FF800FF3F4FF48036C8BF01264FF47F0506FADD
:107008000CF6C8BFFF252E40C3F8BC6199F91030B3
:107018004FF4803EDAF800604FF47F04B3F1FF3F8D
:1070280003F01F03C4BFFF244FF0010E05460EFAFC
:1070380003F348462340C6F8783101F075FB8046D3
:10704800D9F8080051460068C0F30A42484601F0E2
:10705800E7FA28469EE0BBF8303006F00F04E3401C
:10706800DB073FF444AF4FF480330290B6F1FF3FA3
:10707800C8BF01234FF47F0603FA05F3C8BFFF26F4
:107088003340CCF8BC314FF480309AF910304FF4CB
:107098007F04D9F80060B3F1FF3F03F01F03C4BFBA
:1070A800FF24012098402040C6F87801DAF80C60E7
:1070B800DAE9013005687468F669C5F30A4842459B
:1070C80038BF9046C4F30E42B21A424538BF9046C4
:1070D800434538BF9846B8F1000F53D0DAF800E0BE
:1070E80008F00302B8F1040F1ED2002639E04FF46D
:1070F8008036B3F1FF3FC8BF01264FF47F0306FA7D
:1071080002F2C8BFFF231A40C1F87821D9F8081045
:10711800054648460968C1F30A42514601F080FA1B
:1071280028464FF0080835E0CDE9002940F2FC7206
:1071380008EA020C4D1C00260EEB06041EF8063069
:10714800A81994F8019005F806900436B445A27879
:1071580000F8013C4270E2788270EDD1DDE9002947
:10716800B6446AB19EF80000012A885508D0314417
:107178009EF80100022A48701CBF9EF80200887021
:10718800DAF8080000684946C0F30A42504601F0A0
:1071980047FA02980021C0F8048078E641F2080016
:1071A800C2F2200002F07AFE41F27800C2F220001A
:1071B80002F0F0FE41F2E802C2F22002184631461F
:1071C80002F01AFF41F2D802C2F2200218463146F4
:1071D80002F012FF41F2D8020020C2F22002002180
:1071E80002F00AFFF0B503AF4DF804BD82B00468A1
:1071F8002168002940F0F680D0E9011E4FF0FF33E6
:10720800D0E903C2204640F8043B0B78DBB149784B
:10721800A5684A0042EAD112D3B29D4240F2C58025
:10722800E56902F00F022D68BFF35F8FADB225FA52
:1072380002F2D20700F0B980A169994240F2DE80DB
:1072480001200521C7E01378A66843F001014D002D
:1072580045EAD315EBB29E4240F2A780E66905F0F5
:107268000F053668BFF35F8FB6B226FA05F5ED074E
:1072780000F09B80A169994240F2C0801378A6680B
:1072880043F002014D0045EAD315EBB29E4240F2AD
:107298008C80E66905F00F053668BFF35F8FB6B2DC
:1072A80026FA05F5ED0700F08080A169994240F2C1
:1072B800A5801378A66843F003014D0045EAD3156D
:1072C800EBB29E4271D9E66905F00F053668BFF347
:1072D8005F8FB6B226FA05F5ED0766D0A169994227
:1072E80040F28C801378A66843F004014D0045EA0B
:1072F800D315EBB29E4258D9E66905F00F053668FA
:10730800BFF35F8FB6B226FA05F5ED074DD0A16938
:10731800994273D91378A66843F005014D0045EAF0
:10732800D315EBB29E4240D9E66905F00F053668E1
:10733800BFF35F8FB6B226FA05F5ED0735D0A16920
:1073480099425BD91378A66843F006014D0045EAD7
:10735800D315EBB29E4228D9E66905F00F053668C9
:10736800BFF35F8FB6B226FA05F5ED071DD0A16908
:10737800994243D91278A56842F007014B0043EAC5
:10738800D212D3B29D4210D9E56902F00F022D68DE
:10739800BFF35F8FADB225FA02F2D20705D0A1691B
:1073A80099422BD90120032115E0E26ABEF800308A
:1073B8009A4203D3D21AA66AB24202D20120042109
:1073C80009E0E2620D469CF80060009601F0AAF818
:1073D80070B10020294622680132226002B05DF8AF
:1073E80004BBF0BD41F20800C2F2200002F056FDD5
:1073F80041F23800C2F2200002F0CCFD41F2E8026E
:107408001846C2F2200202F0F7FDF0B503AF4DF8BE
:1074180004BD84B00468216800296DD1D0E9010158
:107428004FF0FF322260A5680378580040EAD31273
:10743800D0B2854259D991F800C002F00F02E16933
:10744800012505FA02F20968BFF35F8F0A424CD0A2
:10745800A16981425CD9A168814253D9E16909686F
:10746800BFF35F8F0A424DD0A169814256D92146A8
:1074780000EB800051F8206F51F80C5C05EB8000A0
:10748800057C05F07F020192082A4DD26DB205F005
:107498003F024FFA83FE002D06EB8202D2F8C0317C
:1074A80046BF23F480336CF310436CF30003BEF142
:1074B800000FC2F8C03118D45FEACC7215D10A683F
:1074C800012690F91030002BD2F8B82103F01F03E1
:1074D80048BF120C06FA03F31A40120605D1826857
:1074E8001268C2F30A4201F09BF82068013020605C
:1074F80004B05DF804BBF0BD41F20800C2F2200000
:1075080002F0CCFC41F28800C2F2200002F042FDF9
:1075180041F2E802C2F2200202F06EFD41F2D80206
:10752800C2F2200202F068FD46F6097041F2A80294
:10753800C0F2000002A9039001A8029040F28E5008
:10754800C2F22000C2F2200202F070FDF0B503AFD3
:107558002DE9000F83B00E683268002A40F00082DF
:10756800D1E9015ECC684FF0FF3131602978B2680B
:107578004B0043EAD111CBB29A4272D9F26901F0B9
:107588000F011268BFF35F8F92B222FA01F1C907A7
:1075980067D0B169994240F2EF8129784A0662D0F2
:1075A8004B0043EAD111B268CBB29A4240F2DE8175
:1075B800F26901F00F011268BFF35F8F92B222FAED
:1075C80001F1C90700F0D281B169994240F2E18125
:1075D800716903EB830201EB8209D9F80C10496841
:1075E80011F0680F54D1B04699F8102058F820CF00
:1075F80002F01F0355B20122DCF8B811B5F1FF3FC4
:10760800D8BF090C9A401140090657D102904FF48F
:107618008030B5F1FF3FC8BF01204FF47F0100FA69
:1076280003F0C8BFFF210840CCF87801D9E901016F
:1076380009684FEA114A6FF3DF2A544538BFA2465A
:10764800504538BF8246BAF1000F00F0C280D9F821
:1076580000400AF00302BAF1040F67D20021234662
:107668007CE005212BE0B1680229C0F08C81F1692A
:107678000968BFF35F8F890740F18581B1690129E6
:1076880040F28E8171690A6A526812F0680F01D05F
:10769800072114E0B14691F8242059F820CF02F0D0
:1076A8001F0A53B20122DCF8B85102FA0AF2B3F108
:1076B800FF3FD8BF2D0C2A4012060AD00021417086
:1076C800012132680170501C306003B0BDE8000F22
:1076D800F0BD02904FF48030B3F1FF3FC8BF0120E6
:1076E8004FF47F0200FA0AF0C8BFFF221040CCF81E
:1076F800780101F11408D1E9060109684FEA114A35
