:0200000460009A
:100000004643464200000156000000000101020084
:1000100000000000000000000000000000000000E0
:1000200000000000000000000000000000000000D0
:1000300000000000000000000000000000000000C0
:1000400000000000010403000000000000000000A8
:100050000000200000000000000000000000000080
:100060000000000000000000000000000000000090
:100070000000000000000000000000000000000080
:10008000EB04180A063204260000000000000000FD
:10009000050404240000000000000000000000002F
:1000A0000000000000000000000000000000000050
:1000B0000604000000000000000000000000000036
:1000C0000000000000000000000000000000000030
:1000D00020041808000000000000000000000000DC
:1000E0000000000000000000000000000000000010
:1000F0000000000000000000000000000000000000
:1001000000000000000000000000000000000000EF
:100110000204180804200000000000000000000095
:1001200000000000000000000000000000000000CF
:10013000600400000000000000000000000000005B
:1001400000000000000000000000000000000000AF
:10015000000000000000000000000000000000009F
:10016000000000000000000000000000000000008F
:10017000000000000000000000000000000000007F
:10018000000000000000000000000000000000006F
:10019000000000000000000000000000000000005F
:1001A000000000000000000000000000000000004F
:1001B000000000000000000000000000000000003F
:1001C000000100000010000001000000000000001D
:1001D000000000000000000000000000000000001F
:1001E000000000000000000000000000000000000F
:1001F00000000000000000000000000000000000FF
:10020000D4D4D4D4D4D4D4D4D4D4D4D4D4D4D4D4AE
:10100000D10020400020006000000000000000002F
:1010100020100060001000600000000000000000D0
:101020000000006058B9000000000000EFBEADDE17
:10103000124880F3088812481249016000F036F81F
:10104000114812490022814201D004C0FBE7104838
:101050001049114A814202D008CA08C0FAE70F4875
:101060004FF47001026842EA01020260BFF34F8F41
:10107000BFF36F8F00F014F800DE00000040002086
:1010800008ED00E000400020005000200484002013
:10109000B84200206844002058B9006088ED00E0A4
:1010A00041F24B1CC0F2000C6047D4D4204840F2FF
:1010B0009C41884219D040F24C418842CCBF1D4A25
:1010C0001D4A1E4B5360136823F0800313601C48B5
:1010D0001C49C1BF1C480A0C8264C1F30F01416462
:1010E000016C41F00401016402E0184815490160F7
:1010F0001748184A824205D01749814202D008CACF
:1011000008C0FAE71548164A824205D015498142BF
:1011100002D008CA08C0FAE71348144A824205D030
:101120001349814202D008CA08C0FAE7704700009C
:10113000240400000080034000C00B4020C528D9D3
:1011400000C00A40AAAAFAFF00400E4060004F44C7
:1011500000000000B8220060288400000040002049
:1011600000200060B842002000002020E0A60060BF
:1011700078122020D4D4D4D4D4D4D4D4D4D4D4D4B5
:10118000D4D4D4D4D4D4D4D4D4D4D4D4D4D4D4D41F
:10119000D4D4D4D4D4D4D4D4D4D4D4D4D4D4D4D40F
:1011A000D4D4D4D4D4D4D4D4D4D4D4D4D4D4D4D4FF
:1011B000D4D4D4D4D4D4D4D4D4D4D4D4D4D4D4D4EF
:1020000000400020311000602543000021840000C2
:102010002543000025430000254300000000000088
:102020000000000000000000000000002543000048
:1020300025430000000000002543000001000000CF
:1020400025430000254300002543000025430000F0
:1020500025430000254300002543000025430000E0
:1020600025430000254300002543000025430000D0
:1020700025430000254300002543000025430000C0
:1020800025430000000000000000000000000000E8
:1020900025430000254300002543000025430000A0
:1020A0002543000025430000254300002543000090
:1020B0002543000025430000254300002543000080
:1020C0002543000025430000254300002543000070
:1020D0002543000025430000254300002543000060
:1020E0002543000025430000254300002543000050
:1020F0002543000025430000254300002543000040
:10210000254300002543000025430000254300002F
:1021100000000000254300000000000025430000EF
:10212000254300002543000025430000254300000F
:102130002543000025430000000000002543000067
:1021400025430000254300002543000025430000EF
:1021500025430000254300000000000000000000AF
:1021600025430000254300002543000025430000CF
:1021700025430000254300002543000025430000BF
:1021800025430000254300002543000025430000AF
:10219000254300002543000025430000254300009F
:1021A000254300002543000025430000254300008F
:1021B000254300002543000025430000254300007F
:1021C00025430000254300002543000000000000D7
:1021D000254300002543000025430000254300005F
:1021E000254300002543000025430000254300004F
:1021F000254300002543000025430000254300003F
:10220000254300002543000025430000254300002E
:10221000254300002543000025430000254300001E
:10222000254300002543000025430000254300000E
:102230002543000025430000254300000000000066
:102240000000000025430000254300002543000056
:1022500025430000254300002543000025430000DE
:1022600025430000254300002543000025430000CE
:1022700025430000254300002543000025430000BE
:1022800025430000254300002543000025430000AE
:10229000254300002543000025430000254300009E
:1022A00025430000254300002543000000000000F6
:0822B000254300002543000056
:1022B80080B56F4645F20000C2F2000050E8001FEA
:1022C800013140E80012002AF8D180BD80B56F4680
:1022D800ADF50C7D044644F2DE20C2F2000044F263
:1022E800DC210088BFF35F8FC2F200010988BFF3C9
:1022F8005F8F41EA000212B2B2F1FF3F27DD09AD5C
:10230800ADF802004FF44170ADF80410ADF80000CC
:1023180028464FF4007107F008FF89A869462A4645
:102328004FF4007302F0BCFF9DF8240278B98A9A32
:10233800B2F5007F42D852B16B1E791E13F8010F17
:10234800013A07F8010C4FF00300ABBEF6D1606804
:1023580009ACD0E900128068CDE904120E2103917E
:1023680040F20001C2F22001CDE9010107208DF8F9
:10237800000020464FF4007107F0D7FE89A869468F
:1023880022464FF4007302F08BFF9DF8240278B9BF
:102398008A9AB2F5007F11D852B1631E791E13F8DC
:1023A800010F013A07F8010C4FF00300ABBEF6D15C
:1023B80023211820C0F20201ABBEFEE740F2F07301
:1023C8001146C2F2200300204FF4007207F058F9BA
:1023D800D0B502AF84B00188062911D18169096896
:1023E800BFF35F8F79B10023827F009302AB04466D
:1023F8001846012305F0B6FC0820208004B0D0BDA3
:10240800072004B0D0BD40F6500040F67402C2F276
:102418002000C2F22002222107F0D0F9F0B503AF64
:102428004DF804BD86B0044608880D46411E0329B0
:1024380027D3052825D0072832D1D5F8AC00D5F800
:10244800063069898028D5F80220ADF80C10CDE94E
:1024580001236BD8E9680968BFF35F8F00295AD058
:10246800C0F18003AA7C2844009300F1240304A847
:1024780005F0BBFA9DF81000C0B39DF81100D8B95B
:102488002EE0E8680168BFF35F8F002943D0AA7C7B
:1024980004A800260123009605F0A7FA2E801FE065
:1024A800E8680168BFF35F8FA9B30020AA7C009099
:1024B80004A8012305F099FAE86809212980006831
:1024C800BFF35F8F38B3A97C012205F0A1F9A86991
:1024D8000068BFF35F8FF0B1A97F012205F098F97A
:1024E8000420607206B05DF804BBF0BD0598D5E91C
:1024F8002B120844C5F8AC009042F1D3DDE9010184
:102508000623BDF80C202B8020606160228106B074
:102518005DF804BBF0BD40F6500040F67402C2F20C
:102528002000C2F22002222107F048F940F2387355
:102538008021C2F22003802207F0A2F8F0B503AF91
:102548002DE9000F83B00446C8680D460168BFF343
:102558005F8F002900F08E808020AA7C009005F112
:10256800240301A805F041FA9DF80400012803D1CD
:102578009DF8050050BB3FE00299812980F08580D5
:10258800082923D1E86895F82410B5F82AB0D5F8B9
:10259800268001F01F0295F82590042A006828BFBC
:1025A8000422BFF35F8F002864D0C1F3411301F008
:1025B8008006A97C42EA032A002205F029F90EBB0D
:1025C800BBF1000F36D0BBF1800F44D9E868092170
:1025D80029800068BFF35F8F00284BD0A97C0122B7
:1025E80005F016F9A8690068BFF35F8F002841D08D
:1025F800A97F012205F00CF90420607203B0BDE840
:10260800000FF0BD0420A5F80AA06E7285F80890A6
:10261800A5F806B0C5F802802880A4F808A0E671DD
:1026280084F80690A4F804B0C4F8008003B0BDE8AC
:10263800000FF0BD0620A4F808A028800020C5F8E7
:10264800B000E07184F80690A080C4F8008003B060
:10265800BDE8000FF0BD0020A5F80AA0C5E92B0BC6
:102668006872072085F80890A5F806B0C5F80280BA
:102678002880C1E740F6500040F67402C2F22000FC
:10268800C2F22002222107F099F840F24873002094
:10269800C2F22003802206F0F3FFD0B502AF84B067
:1026A8000446D0E929C2D0F8AC00D4F8B010BCF187
:1026B800000FA38B08BF8022091A994238BF0B4626
:1026C800191828D2914226D8A1690968BFF35F8FEB
:1026D80039B3A27FBCF1000F009308BF04F1240CAA
:1026E8000CEB000302A805F03DFB9DF8080080B93B
:1026F8000398D4E92B120144C4F8AC10914208D3D2
:102708000021A28BC4F8A4100321904208BF022123
:10271800218004B0D0BD40F25873C2F2200306F005
:10272800AFFF40F6500040F67402C2F22000C2F239
:102738002002222107F042F8B0B502AF84B0018828
:102748000139072939D8DFE801F0041C0A3838387C
:102758003832FFF7A2FF0024204604B0B0BDC1689C
:102768000A68BFF35F8F002A41D0817C0546104676
:102778000022002405F04CF805202880204604B0EB
:10278800B0BD81690968BFF35F8F81B3827F054659
:1027980002A800240123009405F0E4FA9DF808003B
:1027A800002804BF03202880204604B0B0BD0021C3
:1027B80001240180204604B0B0BDC168092202800E
:1027C8000A68BFF35F8F92B1817C044610460122EC
:1027D80005F01EF8A0690068BFF35F8F38B1A17FCC
:1027E800012205F015F80024204604B0B0BD40F6DB
:1027F800500040F67402C2F22000C2F220022221E8
:1028080006F0DCFFB0B502AF88B0044600880428A3
:102818002CD109680020802206908DF81C000290B7
:1028280000906846059204F12402E588049205F0B8
:10283800E0FEC0B2082817D10698802819D9E068A8
:10284800092121800068BFF35F8F00B3A17C0122BA
:1028580004F0DEFFA0690068BFF35F8FB8B1A17F05
:10286800012204F0D5FF022008B0B0BD072008B04F
:10287800B0BD012200212280A84238BF054620466B
:10288800C4E92B15FFF709FF082008B0B0BD40F6D2
:10289800500040F67402C2F22000C2F22002222147
:1028A80006F08CFFB0B502AF8AB004460088042851
:1028B80033D1002080210790A7F10A028DF820006B
:1028C80002230390019040F20940069104F124018B
:1028D80027F80A0C01A805910321E58805F03AFEBE
:1028E800C0B2082817D10798802819D9E0680921AB
:1028F80021800068BFF35F8F00B3A17C012204F040
:1029080087FFA0690068BFF35F8FB8B1A17F01227C
:1029180004F07EFF02200AB0B0BD07200AB0B0BDA7
:10292800012200212280A84238BF05462046C4E97A
:102938002B15FFF7B2FE08200AB0B0BD40F65000D4
:1029480040F67402C2F22000C2F22002222106F0F0
:1029580035FFF0B503AF2DE9000788B004460088BD
:10296800042848D1D1E9000680228D68002105920B
:1029780004F12402069104928DF81C100291009132
:1029880001686846B4F8068005F090FCC0B20828D3
:102998002DD18DB106EBC505E9464FF0000AD6E901
:1029A8000001CA6849469047C1B208291FD10836B4
:1029B800CDF808A0AE42F2D1684605F05FFD069852
:1029C80080281DD9E068092121800068BFF35F8F46
:1029D80030B3A17C012204F01BFFA0690068BFF39B
:1029E8005F8FE8B1A17F012204F012FF022008B036
:1029F800BDE80007F0BD072008B0BDE80007F0BD3E
:102A0800012200212280404538BF80462046C4E983
:102A18002B18FFF742FE082008B0BDE80007F0BDFC
:102A280040F6500040F67402C2F22000C2F22002C2
:102A3800222106F0C3FEF0B503AF2DE9000B8CB0E0
:102A480004460088042846D100200D4607908021BE
:102A58008DF82000164603900190099001A80B906C
:102A680009A8069104F12401B4F80680059105F03F
:102A780089FFC0B208282AD176B105EBC6060DF148
:102A88002409D5E900010A6949469047C1B20829D5
:102A98001DD10835B542F4D109A805F0CCFF079837
:102AA80080281DD9E068092121800068BFF35F8F65
:102AB80030B3A17C012204F0ABFEA0690068BFF32B
:102AC8005F8FE8B1A17F012204F0A2FE02200CB0C2
:102AD800BDE8000BF0BD07200CB0BDE8000BF0BD51
:102AE800012200212280404538BF80462046C4E9A3
:102AF8002B18FFF7D2FD08200CB0BDE8000BF0BD85
:102B080040F6500040F67402C2F22000C2F22002E1
:102B1800222106F053FEB0B502AF88B00446008803
:102B280004282DD1D1E900120020802306908DF8C9
:102B38001C00029000906846059304F12403E58880
:102B4800049305F0F3FDC0B2082817D10698802831
:102B580019D9E068092121800068BFF35F8F00B3AD
:102B6800A17C012204F054FEA0690068BFF35F8FC6
:102B7800B8B1A17F012204F04BFE022008B0B0BD1D
:102B8800072008B0B0BD012200212280A84238BF2A
:102B980005462046C4E92B15FFF77FFD082008B03D
:102BA800B0BD40F6500040F67402C2F22000C2F2F6
:102BB8002002222106F002FE0288042A1CBF0720F8
:102BC8007047F0B503AF4DF804BD4C68802C03D9AD
:102BD80002205DF804BBF0BD096800F12402C68834
:102BE80005461046224606F015FE0020B44238BFBE
:102BF8002646C5E92B06012028802846FFF74DFD0B
:102C080008205DF804BBF0BDD0B502AF0446C0682B
:102C1800092121800068BFF35F8F78B1A17C012270
:102C280004F0F6FDA0690068BFF35F8F00281FBF9E
:102C3800A17F0122BDE8D04004F0EABD40F6500073
:102C480040F67402C2F22000C2F22002222106F0ED
:102C5800B5FD80B56F46002080BD80B56F4680BD4C
:102C680080B56F46082080BD80B56F4680BD80B5B1
:102C78006F460822002182814FF4FA52C0E95011B0
:102C8800C0E92E11C18681738260016080BD80B564
:102C98006F46ADF5086D05F012FF044605F005FF17
:102CA80048F20240E207C2F20000017807D1002989
:102CB80040F0B0820121017005F0F9FE04E000291E
:102CC80040F0AA82012101704BF60C304BF6083116
:102CD800C6F20000C6F20001401A0DF294644FEAF1
:102CE8009009204603F0CDFA04F1340004F13801CC
:102CF80004F1540202F0D6FFDDF85C0703F02FFD63
:102D0800DDF8BC070022016841F001010160DDF82F
:102D1800BC17086820F002000860DDF85407C1F805
:102D28000821C1F81821C1F82821C1F83821016803
:102D380021F001010160016841F40041016001686E
:102D4800090409D50168090444BF01685FEA014123
:102D580002D501680904F2D43F218160016821F09D
:102D680001010160DDF85807016821F001010160E7
:102D7800016841F4004101600168090409D501684E
:102D8800090444BF01685FEA014102D501680904EA
:102D9800F2D43F2140F263428160016821F00101D1
:102DA8000160DDF89416886C40F001008864486C76
:102DB80010434864486C012262F383004864486CFD
:102DC80020F080004864886C40F020008864486CDB
:102DD80040F440404864486C40F444704864886C4F
:102DE80040F080008864886D000709D0886D00076E
:102DF8001CBF886D5FEA007002D0886D0007F2D1B1
:102E0800886C40F020008864486C20F44040486496
:102E18004A6CDDF8980622F4447202F588724A6416
:102E2800816C40F2634241F001018164416C1143BD
:102E38004164416C012262F383014164416C21F0D9
:102E480080014164816C41F020018164416C41F44E
:102E580040414164416C41F444714164816C41F0EA
:102E680080018164816D090709D0816D09071CBF44
:102E7800816D5FEA017102D0816D0907F2D1816C21
:102E8800022241F020018164416C21F440414164F7
:102E9800416C21F4447101F588714164DDF8100832
:102EA800016841F480310160016841F0400101602E
:102EB8002221C0F20F01416040F26851C0F20C11AA
:102EC800016240F29511C0F2B2014162DC21C0F208
:102ED8007A0181627D21C0F25801C1624B21C0F2A2
:102EE800400101632F21C0F22E014163816346F640
:102EF8002011C16040F6A31181604FF4C841C1613F
:102F08004FF4C861816140F6C411C0F68041016187
:102F18003F214161016862F30101016001684FF4DA
:102F2800805221F480310160C06FDDF8FC17A7F1F1
:102F3800280003F081FC0DF55278DDF8F016DDF875
:102F4800F4264046DDF838B7DDF81858DDF82CA827
:102F580003F008FCDDF8C4074FF47046DDF8C81725
:102F68000F24DDF8CC27DDF8D037A0F88C61A0F865
:102F78008E41A7F12C00A1F88C61A1F88E41A2F82E
:102F88008C61A2F88E41A3F88C61A3F88E4147F8B2
:102F98002CBC03F064F901F01F01012202FA01F1CF
:102FA800C0F8841046F20000C2F2000000F59A5101
:102FB800BFF35F8F51E8002F42F0004341E800362D
:102FC800002EF7D1002ABFF35F8F00F1188148F275
:102FD800000C0123C2F2000C0CF58062BFF35F8F76
:102FE800D2E84F6FC2E8443F002CF9D1002EBFF35E
:102FF8005F8F40F0F9804FF00043CDF80090CAF899
:103008003430CAF838304FF08043CAF838300023DB
:10301800CAF800300223C5F84031D5F840319B0783
:103028000CD5D5F840319B0744BFD5F840315FEA4D
:10303800837303D5D5F840319B07EED44FF00009D0
:103048000A23C5F84091C5F8A831D5F8843143F072
:103058008073C5F88431D5F84431C5F84431C5F8D2
:103068004891C5F85801DD92D9AA82E8220400F5F2
:1030780090514FF0100AD39000F58050CDE9D6A1B9
:103088000021CDE9D4A04046CDF870C38DF87C93DB
:10309800ADF87893CDF860A3CDF8489304F09DFA85
:1030A80045F204004FF48061C2F2000083460181BA
:1030B8000121C0F80C90016000F110014BF8049F49
:1030C800B8E83C003CC1B8E87C007CC198E87C00CA
:1030D8007CC101AC5946C0F8489004F10800402270
:1030E80001F0F1F804F138008021012207F074F8AA
:1030F80004F1C00080210122CDE92F9907F06CF876
:1031080045F62400A7F12802C2F2DD70594647F8B7
:10311800100C322047F8060C0220C0F60000CDE95A
:10312800519947F80A0C132047F81C0C40F2887094
:10313800C2F22000CDF8049047F8200C04F5167070
:1031480027F80CAC47F8189C47F8289C00F014FFA7
:103158004EF21000CEF20000016841F00401016057
:1031680042F2BF71C0F209014160C0F808900168DD
:1031780041F001010160016841F00201016004F5BC
:10318800AA704FF481718DF84493CDF84C9106F0F4
:10319800CCFF4EF6FC50D2ADCEF200004FF4517287
:1031A800016841F08071016041F20000CEF2000038
:1031B800C0F80490016841F00101016028462146E9
:1031C80007F066F80098CDF890064BF60830C6F27E
:1031D8000000CDF88C06284601F03DFB262118207A
:1031E800C0F20201ABBEFEE740F6201040F64C32BA
:1031F800C2F22000C2F22002202106F086FA40F630
:103208001C3040F63C32C2F22000C2F220021F21DC
:1032180006F07BFA05F04BFC40F27870C2F2200011
:1032280006F086FAF0B503AF2DE9000794B08046A2
:1032380040F29C70C2F220000D46CDE9001001F565
:1032480016706946012200F083FD70B195F83A03C3
:10325800022859D195F8400358B9D5F8340304F039
:103268000CFA012085F8400303E095F84003002894
:103278004DD0EA464021504606F057FF05F10800B8
:1032880005F138062A8C13AB139010A8314600F0CC
:103298009BFF9DF84000D0BBD5E92E01814236D076
:1032A8000C1A402C28BF402404EB0009814535D373
:1032B800B9F1810F32D231185046224606F0AAFAE7
:1032C800C5F8B89005F5A4750DF14009002602E08F
:1032D8000136B4421BD01AF80610284601F038FF10
:1032E8000028F5D003460A464846194600F067F913
:1032F8009DF840000428EBD010AA07CA88E8070008
:1033080014B0BDE80007F0BD002085F84003042094
:1033180088F8000014B0BDE80007F0BD40F6B0130F
:103328004946C2F22003802206F0AAF9F0B503AF9D
:103338002DE90007ADF5047D6E460D46044630467E
:103348004FF4007106F0F1FE80A8294632464FF48A
:10335800007301F0A5FF9DF8000228B101200DF5CA
:10336800047DBDE80007F0BD94F8400301282CD186
:10337800819DB5F5007F36D83DB340F29C7A04F5BF
:1033880016780DF502796E46C2F2200A00E0E5B122
:10339800404649460122CDE9824A00F0D9FC484618
:1033A800214632462B4600F0A2F89DF80802012873
:1033B80005D19DF809020028D0D110BFE7E783980E
:1033C800854208D306442D1AE1E700200DF5047D57
:1033D800BDE80007F0BD40F2D0732946C2F22003D1
:1033E8002A4606F04DF940F2E0730020C2F22003AD
:1033F80029464FF4007206F043F980B56F46FFF78F
:1034080046FC80B56F460830BDE8804001F04BB8F7
:1034180080B56F460830BDE8804001F0A2B880B59D
:103428006F4690F82E20C9B2914218BF80BDBDE802
:10343800804000F007B880B56F460830BDE880408E
:1034480001F01DB9D0B502AF8AB000F10801CDE98D
:103458000210D0E90021D0E95034022A18BF002117
:103468009C42049116D169B3816A0968BFF35F8FE2
:1034780091B390F82E200020009007A80123012482
:1034880004F070FC9DF81C00012820D19DF81D0057
:103498000AB0D0BD04AB099303AB089302AB028C0E
:1034A8000793092988BF013A00F1C00105A807ABB5
:1034B80092B200F028FE9DF8140050B19DF8150056
:1034C8000AB0D0BD0021016008200AB0D0BD039821
:1034D800046000200AB0D0BD40F6500040F67402E7
:1034E800C2F22000C2F22002222106F067F9F0B5EC
:1034F80003AF2DE900078046D1F8440101F1C00966
:103508000D46C0F18004A3421AD9D5F84061BEB176
:10351800802E01D180210DE07F2E48D81446821BD1
:1035280009EB060148469A4606F0F9FDD5E9501020
:1035380022465346401A0026C0F18004C5E950606F
:10354800A34238BF1C46E4B12118814228D38129FF
:1035580026D248441146224606F05CF9D5F84401C3
:103568002044C5F844012846FFF76CFFC0B2410764
:103578000ED10020C8F8044088F80000BDE8000714
:10358800F0BD2846FFF75EFFC0B2410708BF002024
:1035980088F80100012088F80000BDE80007F0BDA8
:1035A80040F6C0138022C2F2200306F069F840F604
:1035B800A0123046C2F22002802106F0EBF8F0B5E6
:1035C80003AF4DF8048D4FF00408002A00F027815E
:1035D8000B4613F9015B05F07F04B5F1FF3F22DDCF
:1035E800002C5CD00A44022C2BD0012C40F06681C0
:1035F800934200F014811C4614F9011B01F07F0569
:10360800B1F1FF3F40F38080944200F008812346E7
:1036180013F9016B06F07F01B6F1FF3F40F3A48078
:10362800002403223CE0012A00F0F98091F90130DE
:1036380003F07F05B3F1FF3F44EAC5143DDD8B1C61
:10364800CEE7934200F0EB801C4614F9011B01F011
:103658007F0EB1F1FF3F3FDD944200F0E08021464C
:1036680011F9013B03F07F0CB3F1FF3F65DD914297
:1036780000F0D5800B4613F9015B05F07F04B5F126
:10368800FF3F40F39780002C00F08480012C40F02D
:103698001581934200F0C3801B78012285E0022245
:1036A80089B2A0F80AC02143A0F808E0416045802B
:1036B800437002705DF8048BF0BD022A00F0AF8001
:1036C80091F9023003F07F05B3F1FF3F44EA8534F6
:1036D80040F3A380CB1C83E7944200F0A08093F9C9
:1036E80001109C1C01F07F06B1F1FF3F4EEAC61E97
:1036F800B2DC944200F093809978032900F2D780D5
:103708004EEA813EDC1CA7E7944200F0888093F9DA
:10371800011001F07F04B1F1FF3F45EAC41503F140
:1037280002043FF771AF944279D09978032900F2E7
:10373800BE8045EA8135DC1C66E791426FD094F97A
:10374800013003F07F01B3F1FF3F4CEAC11C04F1E3
:1037580002018CDC914262D0A178032900F2A78093
:103768004CEA813CE11C82E7934258D094F901303D
:1037780003F07F06B3F1FF3F41EAC6113FF750AFB0
:10378800A31C93424BD01A78042A80F0908041EA17
:10379800823145E7934242D01C4614F9015B05F09B
:1037A8007F01B5F1FF3F4CDD00224FF6FF7421EA9F
:1037B800040475E7934232D091F9015005F07F0374
:1037C800B5F1FF3F44EAC31401F102033FF75BAFD1
:1037D800934224D091F9025005F07F03B5F1FF3FE1
:1037E80044EA833401F103033FF74DAF934216D007
:1037F80091F9035005F07F03B5F1FF3F44EA4354C4
:1038080001F104033FF73FAF934208D00B790F2B28
:103818004DD844EA03744B1D35E7032A06D1042129
:1038280080F8008041705DF8048BF0BD91F9033099
:1038380003F07F05B3F1FF3F44EA45542EDD0B1D2D
:10384800CEE69442EBD093F9014004F07F05B4F141
:10385800FF3F41EAC511A7DC9C1C9442DFD093F9D5
:10386800024004F07F05B4F1FF3F41EA85319BDC5B
:10387800DC1C9442D3D093F9034004F07F05B4F1E3
:10388800FF3F41EA45513FF78FAF04339342C6D01B
:103898001A78102A0BD241EA027185E7042ABED0B1
:1038A8000B790F2B03D844EA03744B1D98E60521C6
:1038B80080F8008041705DF8048BF0BD0E2180F81F
:1038C800008041705DF8048BF0BDF0B503AF2DE9C1
:1038D800000786B01D469146884682468AB108EBA5
:1038E800C9064446D4E900012A464B6A514698471E
:1038F800BAF8000040F00200062826D10834B44285
:10390800F0D1687A28B3BAF8001041F0020006280E
:103918001BD1DAF80C000921AAF800100068BFF3DF
:103928005F8F002800F087809AF81210012203F0B8
:103938006FFFDAF818000068BFF35F8F00287AD0AD
:103948009AF81E10012203F063FF06B0BDE80007D5
:10395800F0BD297AA87939B3012912D0022908BF04
:103968000028D0D16988DAF8DC0001F08F0103F073
:103978009CFEBAF800100429C7D1AAF82400002038
:103988002CE020B30A28BED1BAF800100429BCD113
:10399800BAF80610002001228AF82400AAF80020AC
:1039A800002918BF012121E090B3062824D0082857
:1039B800A9D19AF8E20001210591A7F12201023864
:1039C8000491B0FA80F0400907F8220C2EE0BAF80A
:1039D8000010042999D10020AAF82400BAF806108A
:1039E8000122AAF80020022928BF0221CAE92B01D6
:1039F8005046FEF752FE86E769884A4628885346AD
:103A0800CDE900010AF1B400414600F0E7F87AE791
:103A18009AF8E00002229AF8E1100592A7F1220232
:103A280040000492C0B2084327F8220C04A950466B
:103A3800FFF7C2F867E740F6500040F67402C2F29A
:103A48002000C2F22002222105F0B8FEF0B503AF33
:103A58004DF8048D84B01D4680468AB101EBC2043E
:103A68000E46D6E900012A460B6A41469847B8F83F
:103A7800000040F00200062834D10836A642F0D1F2
:103A8800687A98B36EE040F0020006282AD1D8F888
:103A98000C000921A8F800100068BFF35F8FB0B1CF
:103AA80098F81210012203F0B3FED8F81800006845
:103AB800BFF35F8F00281FBF98F81E10012204B0C3
:103AC8005DF8048B1CBFBDE8F04003F0A1BE40F6D2
:103AD800500040F67402C2F22000C2F220022221F5
:103AE80005F06CFE04B05DF8048BF0BD2A7AA87965
:103AF80029886AB3012A10D0022A33D1012838D084
:103B0800032808BF00292DD169880122D8F8DC00D4
:103B180001F08F0103F07CFE50E00B2822D1002930
:103B280004BFB8F8000006281CD1D8F818000168AE
:103B3800BFF35F8F0029CAD098F81E20002000909C
:103B480002A8012304F00EF90820A8F8000009E0F3
:103B58000138082806D8DFE800F008052005170511
:103B680005052600B8F800008DE70129FAD10020E4
:103B780016E00029F6D169880022D8F8DC0001F0A7
:103B88008F0103F045FE19E0481E80B27F28E9D274
:103B9800D8F8DC0003F061FE0DE00129E2D1012034
:103BA80088F8E0000AE019B10129DBD1022003E01E
:103BB80098F8E20030B1012088F8E2004046FEF7AC
:103BC80007FCCFE7B8F8000040F0020106297FF4AF
:103BD8005AAF4046FFF718F8C4E70000F0B503AF46
:103BE8002DE9000784B0D7E9025A4FF0FF3600905C
:103BF800ACB206EB14240E2C36D8DFE804F008210A
:103C08001035353535353535353535352D00694679
:103C18001846FEF7F7FD04B0BDE80007F0BDECB2AA
:103C2800032C54D804210246DFE804F0023B383F55
:103C3800184604B0BDE80007BDE8F040FEF732BE04
:103C4800CDE90212684601A901901846FEF781FEE7
:103C580004B0BDE80007F0BD184604B0BDE8000791
:103C6800BDE8F040FEF7E7BE188840F002000628DD
:103C7800D1D1D868092119800068BFF35F8F002867
:103C88005BD0997C01221C4603F0C2FDA069006844
:103C9800BFF35F8F002850D0A17F46E000F10802F3
:103CA8000C219846136833B922E000F11002142160
:103CB80098461368E3B141581846CDE9010101A9B6
:103CC8004046FEF728FF04B0BDE80007F0BD98465F
:103CD80072B101EBC2090C46D1E900014B692946D2
:103CE800524698470028E8D104F108014945F2D125
:103CF800B8F8000040F0020006287FF48CAFD8F82E
:103D08000C000921A8F800100068BFF35F8FA0B16C
:103D180098F81210012203F07BFDD8F8180000680B
:103D2800BFF35F8F48B198F81E10012204B0BDE8B8
:103D38000007BDE8F04003F06BBD40F6500040F6C8
:103D48007402C2F22000C2F22002222105F036FDE0
:103D5800F0B503AF2DE9000F91B0D0F8DC4006466E
:103D680006A888461546214603F0BBFD96F8E220D2
:103D7800BDF81810032A0FD100294FF0000018BF12
:103D880003290FD096F8E320042A00F0EA800420E3
:103D980086F8E22086F8E3000020DFE801F003114E
:103DA8003207030011B0BDE8000FF0BD032086F80C
:103DB800E32086F8E200002011B0BDE8000FF0BD56
:103DC800204603F037FE00204FF48061002D86F86E
:103DD800E40086F8E000A6F8E2103080E2D008EBB4
:103DE800C504A8F1080555F8080F69688969884766
:103DF80005F10800A042F6D1002011B0BDE8000F7F
:103E0800F0BDBDF81A00BDF81C10BDF81E200390C7
:103E1800084340EA0209059104925FEAC9703CD060
:103E28000598C0071CBF3046FEF786FC0498C007FB
:103E380007D10398C0072ED008A83146FEF7EEFA3E
:103E480003E008A83146FEF779FB9DF8290004280D
:103E580021D09DF8270080B180281CD1DDE9081207
:103E68000BABBDF82800CDE90B124146ADF8340084
:103E780030462A46FFF729FD0DE0DDE908120EABB2
:103E8800BDF82800CDE90E124146ADF84000304695
:103E98002A46FFF7DBFD29F00109E800B9F1000F18
:103EA800CDE90185009047D00298002854D0DDE97B
:103EB8000010A0F108054FF0020B012600EB0108E5
:103EC80004982C461BEA000F0AD054F8080F6168C2
:103ED8008A6A3146904704F108004045F5D10EE062
:103EE80003981BEA000F0AD02C4654F8080F6168A3
:103EF800CA6A3146904704F108004045F5D1059853
:103F08001BEA000F0DD066F07F04AA465AF8080F86
:103F1800DAF804100A6B214690470AF10800404578
:103F2800F4D129EA0B095FEA094005D0701C0F2E6D
:103F38004FEA4B0B0646C3D3029868B1DDE900107F
:103F4800A0F10805441855F8080F6968C969884739
:103F580005F10800A042F6D1012011B0BDE8000F1C
:103F6800F0BD40F6840040F6A002C2F22000C2F282
:103F780020021C2105F0C9FBF0B503AF2DE9000FA5
:103F880085B00446886800287AD192F821A04FF0BD
:103F9800FF3001F10C058860002090460E46CDE9FF
:103FA800000A0290284600210122002303F030FF76
:103FB8008946B168C00701F10101B16078D10029D3
:103FC8005ED14FF0FF304FF0000BB06028468021E3
:103FD80001228023CDE900BACDF808B003F018FF1C
:103FE800C00779D1B0683268A4F81FB006F1440B55
:103FF8000130002AA177A4F81CA0C4F818B0B0605A
:1040080044D14FF0FF310028316045D12846B160D6
:1040180003F0CDFEB0680130B06043D34FF0FF30FD
:104028008021B06004F12400BFF35F8F7564BFF393
:104038005F8F06F07AF84FF0000CC4F8DC50A4F853
:1040480013C004F1B40184F81290A4F810A0C4F8C5
:104058000CB0B8E86D006DC198E86D006DC1042022
:1040680084F8E2C0C4E92BCCC4F8A4C0A4F800C00A
:10407800A4F8E300A4F8E0C005B0BDE8000FF0BD67
:1040880040F60000C2F2200005F0D6FA40F63000F3
:10409800C2F2200005F0D0FA40F62000C2F220005B
:1040A80005F0CAFA40F61000C2F2200005F0C4FA82
:1040B80040F6901040F6B003C2F22000A7F11E02AD
:1040C800009040F6E000C2F22000C2F22003202156
:1040D80007F81E9C05F036FBB06840F6B003A7F160
:1040E8001D0207F81D1C0130B06040F68010C2F2B6
:1040F8002003C2F220002021009040F6E000C2F226
:10410800200005F01FFBF0B503AF2DE9000B84B0CC
:104118000D468146D1E920011646091A914238BF59
:104128000E46311881423DD380293BD81C689846F9
:104138002268116A0968BFF35F8FD1B392F826200D
:104148002B1802A8009603F00DFE9DF80800012820
:104158000AD19DF80900012189F8001089F80100A9
:1041680004B0BDE8000BF0BD2068008B864205D185
:10417800D8F808000068411C022000E00120D8F8A7
:104188000420C9F804601268C2E900010021D5F8CA
:10419800800089F800103044C5F8800004B0BDE8FC
:1041A800000BF0BD40F6B0138022C2F2200305F0E8
:1041B80067FA40F6500040F67402C2F22000C2F2DC
:1041C8002002222105F0FAFAF0B503AF2DE9000B21
:1041D80082B00646D1F884000C46C0F180018A42BC
:1041E80023D9D4F88050291A80318A4206D9002070
:1041F8003070706002B0BDE8000BF0BD802D01D1B9
:1042080080210CE07F2D56D89146421B611920462B
:10421800984605F084FFD4E920104A464346401AE0
:104228000025C0F18001C4E9205091422DD38118A6
:1042380024D2802922D81B6859690968BFF35F8F87
:1042480071B39D7E2318009230462A4603F0CDFBB9
:104258003078012804BF7178002903D00028C9D11B
:10426800706802E0002030707060D4F88410084450
:10427800C4F8840002B0BDE8000BF0BD40F6282366
:104288008022C2F2200305F0FBF940F6D01040F678
:104298001822C2F22000C2F22002452105F08EFA4F
:1042A80040F6500040F67402C2F22000C2F220022A
:1042B800222105F083FA40F6A0122846C2F2200215
:1042C800802105F067FAF0B503AF2DE9000F85B03E
:1042D80005460868002840F0A38091F804B00C4611
:1042E80088680BF101012171002840F093804FF09C
:1042F800FF3004F10C069146A060FF20082103223C
:104308000290CDE9002130468021002203F080FD93
:104318008A46A168C00701F10101A16040F08680CA
:10432800206800287CD194F80480002908F1010055
:1043380020716FD14FF0FF300221A0600020CDE93D
:104348000019002102903046002203F061FDA268A6
:10435800C00702F10102A2607CD1002A5AD14FF0B5
:10436800FF300391A060002102200291CDE90009ED
:1043780030468021002203F04BFDC00701BF85F8BD
:104388002CB04FF40070A5F8270085F8261001BF5F
:10439800A5F8249004F14401296285F82D8001BF15
:1043A80040F2FF32A5F80F2085F80EA0082201BFC1
:1043B800AA81A960A5F81B00039801BFA876A5F8F3
:1043C80018906961002001BFE885AA80A871A068DB
:1043D80001BF4FF4FA5129600130A06002BF05B057
:1043E800BDE8000FF0BDA06840F6B003A7F11D02BC
:1043F80007F81D1C0130A06040F64820C2F22003D7
:10440800C2F220000F21009040F63820C2F22000AE
:1044180005F098F940F60000C2F2200005F00CF90A
:1044280040F64000C2F2200005F006F940F6582098
:1044380040F6B003C2F22000A7F11F02009040F638
:104448003820C2F22000C2F220030F2107F81FAC67
:1044580005F078F940F6482040F6B003C2F2200093
:10446800A7F11E02009040F6382007F81E1CC2F281
:104478002000C2F220030F2105F064F980B56F46D1
:10448800007840F600120B4640F6FC21C2F22001EB
:10449800C2F2200251F8201052F820201846BDE838
:1044A800804004F04CBED0B502AF537A012B07D13F
:1044B800137A012B02BF90F82C3054889C4200D00C
:1044C800D0BD9379212B04BF9288072A28D0088869
:1044D80040F002000628F3D1C86809220A80006863
:1044E800BFF35F8F88B18A7C0C461146012203F026
:1044F8008FF9A0690068BFF35F8F00281FBFA17FF5
:104508000122BDE8D04003F083B940F6500040F6E0
:104518007402C2F22000C2F22002222105F04EF9F4
:104528000A88042A18BFD0BDCA88002390F804C09E
:10453800012490F805E0072AC1F8AC3083790068B7
:10454800486208460C8081F8283081F829E081F813
:104558002AC028BF0722C1F8B020BDE8D040FEF726
:104568009CB8D0B502AF84B0537A012B07D1137A27
:10457800012B02BF90F82C3054889C4201D004B023
:10458800D0BD9379002B5BD0202B0ED0222B2CD1C1
:1045980012780B8802F0010480F82E40C2F3400222
:1045A800062B80F82F20EAD14DE0D1F8B020812ADF
:1045B8005CD2062A19D991F8282091F8294091F857
:1045C8002AE0032A4B6AB1F800C003604FF00003E9
:1045D80080F804E028BF1A46052C827138BF2346AC
:1045E800BCF1060F4371CAD12DE0088840F00200E3
:1045F8000628C4D1C86809220A800068BFF35F8F03
:1046080098B18A7C0C461146012203F001F9A06991
:104618000068BFF35F8F00281FBFA17F012204B08D
:10462800BDE8D04018BF03F0F3B840F6500040F69C
:104638007402C2F22000C2F22002222105F0BEF864
:10464800088806289BD188690368BFF35F8F002B11
:10465800EBD08A7F0020009002A80C46194601235F
:1046680003F080FB0820208004B0D0BD40F26873BE
:104678001146C2F220030020802205F001F8F0B5AF
:1046880003AF4DF8048D84B090F82C608046002567
:104698000220CDE900050C460846314602220223D5
:1046A80003F0FDFEC0B2082863D12046314602223D
:1046B8000223009504F0E6F8C0B2082859D140F664
:1046C800F6222046C2F220022421032303F042FFEF
:1046D800C0B208284DD140F241422046C2F2200221
:1046E8002421022303F036FFC0B2082841D1062056
:1046F800A7F1160207F8156C242198F82D600323FA
:1047080007F8160C204607F8146C03F023FFC0B214
:1047180008282ED10120A7F1130227F8130C2046F0
:104728002421032307F8116C03F014FFC0B20828F2
:104738001FD108F10801204600F01FF8C1B208296E
:1047480017D100203146009020460A22002304F0A9
:1047580099F8C0B208280CD108F12001204600F0D1
:104768000CF8C1B2082904D108F11401204600F060
:1047780004F804B05DF8048BF0BDF0B503AF4DF854
:1047880004BD8268012A2ED1C3684269934250D27F
:104798000569D0F818C0EC5C0134EC540CF1020443
:1047A80094421CD80CF580739646934238BF9E46B7
:1047B800A34236D3AEEB0403052B10D38B7991F8C3
:1047C80007E00E7A89882B552B199970090A5E70B3
:1047D80083F804E0D9700CF10703934207D902204B
:1047E8005DF804BBF0BD07205DF804BBF0BD94453F
:1047F80028D2072105F80C100CF1010191423FBFA6
:1048080005226A54836108203CBF5DF804BBF0BDF3
:1048180040F66C330846C2F2200311461A4604F0EB
:10482800B9FF40F67C332046C2F22003714604F0FB
:1048380027FF40F68C341846C2F22004114622465F
:1048480004F0A8FF40F65C336046C2F2200311462C
:104858001A4604F09FFFF0B503AF2DE9000F93B09F
:104868000AAD044621462846FEF7DCFC9DF82800E0
:10487800052804D1012013B0BDE8000FF0BD05F1F3
:1048880010010291059410E040F6C0015046C2F2B2
:104898002001FEF74BFD0028ECD105990AA8FEF788
:1048A800C1FC9DF828000528E4D0C1B20429F4D041
:1048B800821E022938BF0222D1B2002900F0C0802E
:1048C800BDF82C600129BDF82A5040F040810598B8
:1048D800D0F84803A842E0D90598D0F8440350F826
:1048E80025004168B142D8D904684FF48270ADF808
:1048F80028000AA90598ADF82C60ADF82A50FEF7F3
:1049080015FD0028B6D144F2DE2044F2DC2AC2F2BA
:104918000000BFF35F8F0580C2F2000ABFF35F8F0C
:1049280006EB460045F20009BFF35F8FAAF8006066
:10493800C2F20009BFF35F8F4EF21808D9F80010D1
:1049480041F2040B04EB80000491CEF20008CEF291
:10495800000BD8F80040DBF800108068039180470E
:1049680044F2DE21DBF800B0D9F80000C2F2000101
:1049780001904FF0FF30D8F80080BFF35F8F0880B8
:10498800BFF35F8FBFF35F8FAAF80000BFF35F8F9D
:104998000DF1280ADDF814904FF40170ADF82800E5
:1049A8005146ADF82C604846ADF82A50FEF7BEFCDB
:1049B80000287FF45FAF42F2BF7143F60723C0F2CD
:1049C8000901B1EB08004FF0000C38BF6046091B25
:1049D800C0F26D0338BF6146A0FB0302ADF82A5050
:1049E8004FF47A75A1FB0301049B0020019CE3FBB3
:1049F80005100523ADF82C6000268DF82830E4FB5F
:104A08000526039BBBEB03037CF100054CF1000476
:104A180094F0010F18BF00250D9518BF0023511AF7
:104A28000C9376EB00004CF1000292F0010F18BFD6
:104A380000200F9018BF00210E914846514628E7E4
:104A4800DDF814A00AA9DAF8480300283FF41CAFDF
:104A5800DAF844434FF0000804EB8000039054F860
:104A6800049B0025ADF82A80D9E90106D9F80C2065
:104A7800D9F81430ADF82C0050468DF82850CDE9FF
:104A88000C62ADF82E30FEF751FC00287FF4F2AE30
:104A9800D9F804000DF1280BDDF814A00494D8B15E
:104AA800D9F8004000EB400004EB8006D4E900018F
:104AB800CDE90C0101208DF8280050465946ADF883
:104AC8002C50ADF82A80FEF731FC00287FF4D2AED6
:104AD8000C340135B442E9D1D9F8140078B3D9F8C7
:104AE80010B000260BEBC0090BEBC6045BF83600D0
:104AF800616849698847054660688A465BF83610E8
:104B0800026908A89047CDF834A00222DDF814A065
:104B1800DDE90801CDE90E010AA950460C95ADF86A
:104B28002C60ADF82A808DF82820FEF7FFFB0028BE
:104B38007FF4A0AE013604F108004845D4D1DDE980
:104B4800030408F101080AA9844288D19CE6BDF84B
:104B58002E10ADF81E100599BDF832A0BDF830B082
:104B6800D1F848139DF829205945ADF81C60ADF8D7
:104B78001A508DF819208DF818007FF68EAE05981A
:104B8800D0F8440350F82B00416951457FF685AEB3
:104B9800006900EBCA0150F83A504C6806A9A269AE
:104BA8002846904761692846884706460298226940
:104BB80088462946904702200AA98DF828000598BA
:104BC800CDE90C68ADF82CA0ADF82AB061E680B547
:104BD8006F4682B044F2B820C2F2000000F118011A
:104BE800684601F049F89DF8000058B9019841F26B
:104BF8008931401A4EF66A61CFF6FF71884284BF48
:104C080002B080BD40F6094040F63442C2F22000AE
:104C1800C2F22002292104F0D1FDF0B503AF2DE93D
:104C2800000B82B044F2B8246846C2F2000404F1D2
:104C3800180101F021F868462146DDF804809DF846
:104C4800009001F019F804F10C016846019D9DF8E7
:104C5800006001F011F8002E18BF0025B9F1000F0F
:104C680018D1A84516D99DF800100198002918BF39
:104C78000020854282BF02B0BDE8000BF0BD40F6BF
:104C8800DC4040F6F842C2F22000C2F220021921AC
:104C980004F094FD40F6B14040F6CC42C2F2200048
:104CA800C2F22002192104F089FD80B56F4640F652
:104CB800085040F64052C2F22000C2F220026F2192
:104CC80004F082FD80B56F46002080BD80B56F4638
:104CD800D0E9000180BDF0B503AF4DF804BD84B044
:104CE800044600208DF80D00CDF80900CDF8050028
:104CF800D00940EA43608DF8042050EAD3114ED021
:104D080042F080018DF80410910B8DF8050041EAFE
:104D1800834151EA933644D040F080008DF8050075
:104D2800500D8DF8061040EAC32050EA53563AD089
:104D380041F080018DF80610110F8DF8070041EA47
:104D4800031151EA137230D040F080008DF807004B
:104D5800D8088DF808102AD041F080018DF8081085
:104D6800990A8DF8090024D040F080008DF80900D8
:104D7800580C8DF80A101ED041F080018DF80A10E9
:104D8800190E8DF80B0018D040F08000B3F1FF3FEA
:104D98008DF80C108DF80B0011DD092513E00125A5
:104DA80011E002250FE003250DE004250BE00525A1
:104DB80009E0062507E0072505E0082503E00120AE
:104DC8000A258DF80D00D4E90160801B854204D9BD
:104DD800022004B05DF804BBF0BD01A930462A46A4
:104DE80004F018FD70196060102004B05DF804BB71
:104DF800F0BDF0B503AF4DF804BD82B00A78012AC2
:104E080013D1D0E90143A34245D049780125224670
:104E180002F8015B9A4242603DD0A21C4260617078
:104E2800102002B05DF804BBF0BDD0E90142A242F7
:104E380031D04968002304F8013B47F8143CCB09FA
:104E4800446007F8151C22D041F0800507F8155C6E
:104E58008D0B07F8143C23D043F0800307F8143C6B
:104E68004B0D07F8135C2DD0090F45F0800507F8A6
:104E7800123C07F8135C2AD0052507F8111C43F0EB
:104E8800800107F8121C111B8D4204D80CE0012583
:104E9800111B8D4208D9022002B05DF804BBF0BD99
:104EA8000225111B8D42F6D8A7F1150106462046AA
:104EB8002A4604F0AFFC60197060102002B05DF85B
:104EC80004BBF0BD0325111B8D42EDD9E3E7042592
:104ED800111B8D42DFD8E7E780B56F46C9B2DFE81E
:104EE80001F00215080FD0E901128A4218D00022F9
:104EF80011E0D0E9011302228B420CD1104680BD8B
:104F0800D0E901128A420BD0032204E0D0E9011251
:104F18008A4205D001220A7001314160102080BD0B
:104F2800022080BDF0B503AF4DF804BD82B0044641
:104F3800002047F8140CC80907F8151C24D041F0C4
:104F4800800207F8152C8A0B07F8140C23D040F0C0
:104F5800800007F8140C480D07F8132C22D0090F0D
:104F680042F0800207F8120C07F8132C25D005250B
:104F780040F0800007F8111C07F8120CD4E9016012
:104F8800801B854214D81EE00125D4E90160801BEE
:104F980085420DD817E00225D4E90160801B8542BF
:104FA80006D810E00325D4E90160801B85420AD9A0
:104FB800022002B05DF804BBF0BD0425D4E901600D
:104FC800801B8542F4D8A7F1150130462A4604F023
:104FD80021FC70196060102002B05DF804BBF0BDC0
:104FE800F0B503AF4DF804BD82B00446002027F8A1
:104FF800120CC1F3C81007F8131CA8B141F08002C5
:10500800C1F3813107F8120C07F8132CB9B1032545
:1050180040F0800007F8111C07F8120CD4E9016071
:10502800801B854206D810E00125D4E90160801B69
:1050380085420AD9022002B05DF804BBF0BD022502
:10504800D4E90160801B8542F4D8A7F113013046EA
:105058002A4604F0DFFB70196060102002B05DF88A
:1050680004BBF0BDF0B503AF2DE9000782B081465F
:10507800002047F81C0C1446D00907F81D2C25D031
:1050880044F0800207F81D2CA20B07F81C0C25D051
:1050980040F0800007F81C0C600D07F81B2C25D089
:1050A80042F0800207F81B2C220F07F81A0C29D0AF
:1050B8004FF0050A40F0800007F8192C07F81A0C81
:1050C800D9E90156701B824517D822E04FF0010A32
:1050D800D9E90156701B82450FD81AE04FF0020A31
:1050E800D9E90156701B824507D812E04FF0030A30
:1050F800D9E90156701B82450BD9022002B0BDE8E0
:105108000007F0BD4FF0040AD9E90156701B82452B
:10511800F3D88846A7F11D012846524604F07AFBC9
:105128005544C9F80450701B844204D9022002B0C7
:10513800BDE80007F0BD28464146224604F06AFB58
:105148002819C9F80400102002B0BDE80007F0BD16
:10515800F0B503AF2DE900070268DFE802F0033C71
:105168001D260C4BC9B2AA291BD1012101600020C0
:10517800BDE80007F0BDD0E90123B3F5807F3CBF4F
:10518800C5182973591C914281600AD10521016013
:105198000020BDE80007F0BD032209020260A0F864
:1051A8000C110020BDE80007F0BDB0F80C21C9B211
:1051B8001143A0F80C11A1F2011292B2B2F57F4F7F
:1051C80012D30022042389B28260C0E90031002092
:1051D800BDE80007F0BDC9B2552905D1022101601B
:1051E8000020BDE80007F0BD002101600020BDE8F7
:1051F8000007F0BD8E4641684FF0000C61B1A1F286
:10520800011212F5807F40D301F00308042906D269
:1052180000244FF0000A17E04FF0000A29E001F4DB
:10522800FE7900244FF0000A06190434A145327BA8
:10523800757B82EA0A02B37B82EA0502F67B82EA80
:10524800030286EA020AEFD1B8F1000F11D000F18B
:105258000C05B8F1010F2E5D8AEA060A09D02C4424
:10526800B8F1020F65788AEA050A1CBFA2788AEAB3
:10527800020A40F80CCB5FFA8EF25FFA8AF3934287
:1052880018BF6046BDE80007F0BD40F650524FF425
:105298008070C2F220024FF4807104F07BFA0000A3
:1052A800F0B503AF2DE9000F8BB0042B03D8022112
:1052B800417000F012BC45F2AA5693462BF8046BD5
:1052C8000BEB0306CDF814B0053E07960E78DFE821
:1052D80016F00800C700510078002C00EC001101FE
:1052E8009000052B00F0F5834E88002502F1050992
:1052F8001571ADF82150F509CDF818908DF820609A
:1053080000F09D81F4B2B60B44F080048DF8215072
:105318008DF8204000F0F481EDB28DF8226045F060
:10532800800603258DF82160EBE1052B00F0D18381
:10533800042602F10508167100254E88ADF82150A3
:10534800CDF81880F5098DF8206000F07281F4B26C
:10535800B60B44F080048DF821508DF8204000F001
:105368007481EDB28DF8226045F0800603258DF832
:1053780021606BE14FF0020C052B00F0AC834E88E6
:1053880002F10509002582F804C0ADF82150F5099D
:10539800CDF818908DF8206000F04D81F4B2B60B6E
:1053A80044F080048DF821508DF8204000F0798178
:1053B800EDB28DF8226045F0800603258DF8216056
:1053C80070E1052B00F0858303211171511DA1EBBC
:1053D8000B0E8B4500F05B83A1EB0B04ABEB0101DB
:1053E80004F0030C11F1040F40F2F6804FF00008AE
:1053F80008E1052B00F06D83D1E90284072602F14C
:10540800050AE50916714FF00006CDF818A08DF8C9
:105418002040CDF8216000F0108144F080068DF81E
:105428002060A60B8DF8215000F0688145F08005BA
:105438008DF82150650D8DF8226000F0FE8146F050
:1054480080068DF82260260F8DF8235000F06482C4
:105458008DF8246045F0800605258DF823605CE210
:10546800052B00F036834E8802F10508002401253B
:10547800ADF82140F4091571CDF818808DF8206039
:1054880000F07B81F5B2B60B45F080058DF8214020
:105498008DF8205000F07081E5B28DF8226045F05B
:1054A800800603258DF8216067E1052B00F0118344
:1054B800052602F10509167100254E88ADF8215020
:1054C800CDF81890F5098DF8206000F0BA80F4B294
:1054D800B60B44F080048DF821508DF8204000F080
:1054E8007581EDB28DF8226045F0800603258DF8B0
:1054F80021606CE1052B00F0EC82D1E9044C062612
:10550800167100268DF82960CDF82560CDF8216048
:10551800E60946EA4C688DF8204058EADC1600F0A7
:10552800928044F080068DF82060A60B46EA8C4EE7
:105538005EEA9C368DF8218000F0738148F0800681
:105548008DF82160660D46EACC2858EA5C568DF83D
:1055580022E000F074814EF080068DF82260260F5C
:1055680046EA0C1454EA1C768DF8238000F0208259
:1055780048F080068DF823605FEADC068DF8244049
:1055880000F01D8244F080048DF824405FEA9C24DA
:105598008DF8256000F0428246F080068DF825607F
:1055A8005FEA5C468DF8264000F0878244F080046C
:1055B8008DF826405FEA1C648DF8276000F07F8232
:1055C80046F08006BCF1FF3F8DF828408DF8276033
:1055D80040F37782092478E224F003014FF00008B1
:1055E8001BF8046B04391BF8035C86EA08061BF8F1
:1055F800024C85EA06051BF8019C84EA050489EA41
:105608000408EDD1BCF1000F1EBF9BF8001088EA1A
:105618000108BCF1010F00F03C829BF80110BCF1BD
:10562800020F88EA01081CBF9BF8021088EA0108EB
:105638002FE201250AE0012534E001256DE101256D
:105648005FE00125C3E001243FE202259C1FAC4234
:10565800C0F03F82CDE9032308AA83460E461146CF
:1056680040462A4604F0D6F8B0880021ADF821104B
:1056780032468DF82000C10900F0D580C3B2800BF6
:1056880043F080038DF821108DF8203000F0D98088
:105698000326C9B28DF8220041F080008DF8210060
:1056A800D0E002259C1FAC42C0F01582CDE903234F
:1056B80008AA83468846114648462A4604F0AAF8AE
:1056C800B8F804000021ADF8211042468DF82000FA
:1056D800C10900F0AA80C3B2800B43F080038DF8A3
:1056E80021108DF8203000F0C1800326C9B28DF852
:1056F800220041F080008DF82100B8E002250CE17D
:105708000225A3F10608A845C0F0E381CDE90323EB
:1057180008AA83468A46114648462A4604F07AF87B
:10572800DAE902260020CDF82100F0098DF8206082
:105738007DD046F080018DF82010B10B8DF8210046
:1057480000F0B38040F080008DF82100700D8DF8D6
:10575800221000F02F8141F080018DF82210310FC6
:105768008DF8230000F02D81052440F080008DF88D
:1057780024108DF8230025E102259C1FAC42C0F0BF
:10578800A881CDE9032308AA83460E461146404660
:105798002A4604F03FF8B0880021ADF821103246BF
:1057A8008DF82000C10944D0C3B2800B43F08003B8
:1057B8008DF821108DF8203079D00326C9B28DF8E4
:1057C800220041F080008DF8210071E002259C1F25
:1057D800AC42C0F07E81CDE9032308AA83468846FF
:1057E800114648462A4604F015F8B8F80400002186
:1057F800ADF8211042468DF82000C1091BD0C3B274
:10580800800B43F080038DF821108DF8203064D090
:105818000326C9B28DF8220041F080008DF82100DE
:105828005CE0022451E101260CE001261FE001247E
:10583800C8E001263CE0012650E003256DE0032482
:1058480043E10226611B58468E4200F2428108EB72
:10585800050408A915463246204603F0DBFFA019C7
:105868006978069005A8FFF737FBFEE00226601B63
:10587800864200F2E98009EB050408A9154632467C
:10588800204603F0C7FFA019D5E90212069005A823
:10589800FFF7E8FB8446C0B2102840F0BA8008F150
:1058A800100105A8FFF7A5FADFE002248AE0022626
:1058B800611B58468E4200F20C8108EB050408A9CA
:1058C80015463246204603F0A5FFA019D5E9021275
:1058D800069005A8FFF7C6FBC7E00226601B8642B4
:1058E80000F2B28009EB050408A9154632462046A5
:1058F80003F090FFA019D5E90223069005A8FFF749
:10590800EAF98446C0B2102840F08380D8E904231D
:1059180005A8FFF7E0F9A8E00425A3F10609A945C1
:10592800C0F0D7800DF1080C83468CE80E0008A95A
:1059380050462A4603F06EFFA9EB0500844200F2A8
:1059480083800AEB050041462246019003F062FF7E
:105958000298D0E904860020F109CDF821008DF8DD
:10596800206021D046F080008DF82000B20B584608
:105978008DF8211020D041F080018DF82110710D93
:105988008DF8222047D042F080028DF82220320F75
:105998008DF8231044D04FF0050A41F080018DF8AE
:1059A80024208DF823103DE04FF0010A584639E0D5
:1059B80004248AE0032405E04FF0020A32E00524BB
:1059C80083E00424A8EB050084423DD8A94408A933
:1059D80002922246484603F01DFF2819A8EB000052
:1059E800864231D84C4402993246204603F012FFD1
:1059F800A019BAF80410069005A8FFF7F1FA844632
:105A0800C0B2102805D1BAF8061005A8FFF7E8FAC1
:105A18002BE058465FE04FF0030A03E0062454E009
:105A28004FF0040A2544A9EB05018A4551D801988D
:105A380008A952460444204603F0ECFE05EB0A0090
:105A4800A9EB0000864203D94FF0020C584642E009
:105A5800544441463246204603F0DCFE0298416831
:105A6800A019069005A8FFF75DFADDE9032384462F
:105A7800C0B2102858462ED1DDF814B0BBF1000F83
:105A880027D00699A1EB0B0E8B457FF4A5AC4FF000
:105A980000089EFA8EF1090C51800EF1040199421A
:105AA80080F0E28002F801800EF1050141600021DA
:105AB80001700BB0BDE8000FF0BD072405E0082415
:105AC80003E001260A248DF82960A3F1060AA245FD
:105AD80009D24FF0020C80F801C0012101700BB00F
:105AE800BDE8000FF0BD0DF1080C02F105088CE8C7
:105AF8000D0008AA894611464046224603F08AFE50
:105B0800B9F818000021ADF821108DF82000C1095E
:105B180011D0C2B2800B42F080028DF821108DF8AE
:105B280020200AD00326C9B28DF8220041F0800057
:105B38008DF8210002E0012600E00226AAEB04000D
:105B480086427DD8A04408A93246404603F062FE4A
:105B5800B9F81A000021ADF821104A468DF8200046
:105B6800C10912D0C3B2800B43F080038DF8211015
:105B78008DF820300CD04FF00309C9B28DF82200FF
:105B880041F080008DF8210004E04FF0010901E0A8
:105B98004FF002093519AAEB0500814550D808EBEA
:105BA800060008A914464A46019003F033FED4E9DA
:105BB80002240020CDF82100E0098DF8204020D0F3
:105BC80044F080018DF82010A10B8DF821001BD026
:105BD80040F080008DF82100600D8DF8221016D05D
:105BE80041F080018DF82210210F8DF8230011D08B
:105BF8004FF0050840F080008DF824108DF8230040
:105C08000AE04FF0010807E04FF0020804E04FF007
:105C1800030801E04FF0040809EB0506AAEB0600AB
:105C280080450DD8019808A9154642468144484642
:105C380003F0F0FD06EB0800AAEB0000844203D94C
:105C48004FF0020C029846E709EB0806294622465F
:105C5800304603F0DFFD02AB31190DCBA1EB0B0E83
:105C68008B457FF4B9AB12E740F660520846C2F2A2
:105C78002002194603F08EFD80B56F468968002220
:105C88000270416080BD80B56F460A782AB140F63F
:105C980070501B21C2F2200080BD4968816000203D
:105CA8001B2180BDF0B503AF2DE9000B82B004467F
:105CB80000688846416D21F003014165104640F2B5
:105CC800E24100F08AFDD8F800504FF400504FF43C
:105CD800805140224FF4803300E069612E69B60498
:105CE8000ED52E69F604F8D52E69B6F1FF3FF5DC1E
:105CF8002E69F60306D42E69760605D46A61EDE7A7
:105D08006861EBE7AB61E9E740F660162146C2F24D
:105D180020060022304600F060FCB01C214600221C
:105D280000F05BFC301D2146002200F056FCB01D3F
:105D38002146002200F051FC06F10800214600220D
:105D480000F04BFC06F10A002146002200F045FC59
:105D580006F10C002146002200F03FFC06F10E007F
:105D68002146002200F039FC06F1100021460022ED
:105D780000F033FC06F112002146002200F02DFC51
:105D880006F114002146002200F027FC06F1160057
:105D98002146002200F021FC06F1180021460022CD
:105DA80000F01BFC06F11A002146002200F015FC49
:105DB80006F11C002146002200F00FFC06F11E002F
:105DC8002146002200F009FC2068416989010FD5AD
:105DD800416921F000714161816C41B1816C0029F8
:105DE8001CBF816C002902D0816C0029F4D1206885
:105DF8004169012221F0605141612068816962F3A3
:105E08000D318161816C41B1816C00291CBF816CAD
:105E1800002902D0816C0029F4D12068416941F041
:105E280000714161816C41B1816C00291CBF816C9A
:105E3800002902D0816C0029F4D14FF480502860E9
:105E4800642028604FF4005068602868002809D44E
:105E5800286800285CBF2868002803D42868B0F1A7
:105E6800FF3FF2DC20680122016962F3020101614F
:105E7800816C41B1816C00291CBF816C002902D062
:105E8800816C0029F4D12068416921F4E051416115
:105E9800816C41B1816C00291CBF816C002902D042
:105EA800816C0029F4D12068816941F44021816125
:105EB8002068416921F000714161816C41B1816CB8
:105EC80000291CBF816C002902D0816C0029F4D103
:105ED800206840F68B56C2F220060022416941F440
:105EE800407141613046214600F077FBB01C2146E5
:105EF800002200F072FB301D2146002200F06DFBED
:105F0800B01D2146002200F068FB2068022540F6FB
:105F180093560022C2F22006816B65F3D841816353
:105F28002068816B41F4802181633046214600F06E
:105F380054FBB01C2146002200F04FFB301D2146C7
:105F4800002200F04AFBB01D2146002200F045FB6C
:105F5800206840F69B564FF00309C2F22006002243
:105F6800816965F3051181612068816969F39C6124
:105F780081613046214600F030FBB01C21460022EA
:105F880000F02BFB301D2146002200F026FBB01D3F
:105F98002146002200F021FB06F1080021460022DC
:105FA80000F01BFB2068172240F6AA26C2F2200642
:105FB800C16962F30501C16120680022C16941F02D
:105FC8004001C1613046214600F007FBB01C214664
:105FD800002200F002FB301D2146002200F0FDFAED
:105FE800B01D2146002200F0F8FA06F1080021460B
:105FF800002200F0F2FA06F10A002146002200F021
:10600800ECFA06F10C002146002200F0E6FA06F14F
:106018000E002146002200F0E0FA206840F62C121B
:1060280042F21073416A41F0400141622068416ABE
:1060380065F30501416201201C210090404600F0F3
:10604800E0FA40F60510214627F81A0CA7F11A00C5
:10605800002200F0C2FA20680E22C16965F38B2184
:10606800C161206840F6A555C2F22005816A69F32E
:10607800881181622068816A62F30501816228467D
:106088002146032200F0A9FAA81C2146032200F0A9
:10609800A4FA281D2146032200F09FFAA81D2146D4
:1060A800032200F09AFA05F108002146032200F0C5
:1060B80094FA05F10A002146032200F08EFA05F150
:1060C8000C002146032200F088FA05F10E00214653
:1060D800032200F082FA05F110002146032200F0A5
:1060E8007CFA05F112002146032200F076FA05F148
:1060F80014002146032200F070FA05F1160021462B
:10610800032200F06AFA05F118002146032200F084
:1061180064FA05F11A002146032200F05EFA05F13F
:106128001C002146032200F058FA05F11E00214602
:10613800032200F052FA05F120002146032200F064
:106148004CFA05F122002146032200F046FA05F137
:1061580024002146032200F040FA05F126002146DA
:10616800032200F03AFA05F128002146032200F044
:1061780034FA05F12A002146032200F02EFA05F12F
:106188002C002146032200F028FA05F12E002146B2
:10619800032200F022FA05F130002146032200F024
:1061A8001CFA05F132002146032200F016FA05F127
:1061B80034002146032200F010FA05F1360021468A
:1061C800032200F00AFA05F138002146032200F004
:1061D80004FA05F13A002146032200F0FEF905F120
:1061E8003C002146032200F0F8F905F13E00214663
:1061F800032200F0F2F905F140002146032200F0E5
:10620800ECF905F142002146032200F0E6F905F118
:1062180044002146032200F0E0F905F1460021463A
:10622800032200F0DAF905F148002146032200F0C4
:10623800D4F905F14A002146032200F0CEF905F110
:106248004C002146032200F0C8F905F14E00214612
:10625800032200F0C2F902B0BDE8000BF0BD80B522
:106268006F4648F248110068C4F21F0105230A6806
:1062780063F303020A60416841F0080141600321A9
:1062880080BDF0B503AF2DE9000F81B048F20141A0
:106298004FF0010CC2F20001BFF35F8FD1E84F2F1E
:1062A800C1E843CF002BF9D1BFF35F8F002A01BFAC
:1062B80048F20001C4F20D010022C4F22F0201BF0E
:1062C80002F5542C02F5502E02F54C28A1F5004495
:1062D80001BFA1F5003501F5F61601F5F413C0E983
:1062E800683601BFC0E96A54C0E96C8EC0E96EC166
:1062F80001F5005E01BF01F5805640F2040CC4F2BE
:106308002E0C01F5021401BF0CF5FE7501F50043D2
:1063180000F5C07888E8380001BF00F5C67383E847
:106328001210C0E9666EA1F5404C01BF01F5881E48
:1063380001F5861801F5841401F5821301BF01F5F2
:10634800003602F51025C0E9585600F5B47501BFAE
:1063580085E81A41C0F87CC1A1F5804C02F51C2ED5
:1063680001BF02F5182802F51424A1F5E03301F560
:10637800282601BF01F5EE15C0E9505600F5A475B1
:1063880085E8184101BFC0E9562C02F5782802F5C6
:10639800742902F5702401BF02F56C234CF2000C3D
:1063A800C4F2070C0CF5004601BF01F5E03E01F50B
:1063B8008E15C0E9485EC0E94A6101BF00F59875CD
:1063C80085E81802C0F83C8101F5482801BF01F5AD
:1063D800442901F5402A01F53C2B01F5382301BF7A
:1063E80001F5342401F5302501F52C26C0E9406576
:1063F80001BFC0E94243C0E944BAC0E9469802F582
:10640800302801BF02F52C2902F5282A02F5242B91
:1064180002F5861301BF02F5841402F5821502F510
:106428008016C0E9386501BFC0E93A43C0E93CBA03
:10643800C0E93E9801F5F01801BF01F59219A1F5E0
:10644800503AA1F5403BA1F5303301BF01F5901456
:1064580001F58C1501F58A16C0E9306501BFC0E960
:106468003243C0E934BAC0E9369844F2000B01BFA0
:10647800C4F2002B0BF500490BF5804A4FF0844815
:1064880001BF01F56C2601F5682401F56425A1F525
:10649800C03301BFC0E9283500F1A80383E85009DB
:1064A800C0E92EA901BF01F5602801F5E61901F53B
:1064B800E81AA1F5203601BF0BF5E03301F55824A1
:1064C80001F55425C0E9205401BF00F1880484E88F
:1064D8004804C0E9259EC0F89C8001BFA1F5103E84
:1064E80001F5FE1801F5001902F5642A01BF02F54D
:1064F800602302F55C2602F5582501F5A03401BF9A
:1065080000F1600B8BE87000C0E91B3AC0E91D98E8
:1065180001BFC0F87CE001F5803E02F540480CF56B
:10652800804901BF01F5804A01F5F21344F20806DB
:10653800C4F2090601BF06F1100506F10804C0E916
:106548001064C0E9125301BFC0E914A9C0E9168E4E
:106558000CF5C03E01F5103801BF01F5801901F5B1
:106568007C2401F5782302F57C2601BF02F5482535
:10657800C0E9085600F1280585E8180201BFC0E9FE
:106588000D81C0F83CE002F5442E02F50C2601BF4F
:1065980001F5D21501F5242402F54022A1F5803336
:1065A80001BFA1F5A031C0E90013C0E9022C1030E9
:1065B80001BF80E8704001B0BDE8000FF0BD40F6B3
:1065C800F55040F62C62C2F22000C2F220023521BA
:1065D80003F0F4F880B56F46FEE780B56F460378A0
:1065E8004078096801EB83014000C0B20323D1F869
:1065F80068C0834002FA00F02CEA03031843886657
:1066080080BDF0B503AF2DE900078046A1F11B005E
:106618001C2880F088801D4616469A4200F28E801B
:10662800002D00F0968043F200698A46C0F26E1988
:106638002A46A6FB0901002303F078FE0AFB09009D
:106648004CF67F11CDF64111084443F27F61C2F246
:10665800BE6188425CD8D7F808C04FF48032D8F8B9
:1066680000004FF480534FF4005100E08167046F3D
:10667800E40307D5046FA404F8D4046FE40403D436
:106688004367F4E74267F2E79CFAACF140F63C72E4
:10669800B1FA81F1C0F88060C0F89050C2F22002CF
:1066A80052F8212040F62876C0F870A0036FC2F295
:1066B800200656F8211023F4C0131A430267D0F8B5
:1066C800702147F6FF73CFF67F731A404FF480535B
:1066D80042EAC15242EAC131C0F870114FF4005188
:1066E8004FF4803200E08367066FB6040BD5066F5F
:1066F800F604F8D4066FB6F1FF3FF5DC066FF60333
:1067080003D58267F0E74167EEE7BDE80007F0BD13
:1067180040F6E46040F61872C2F22000C2F220028D
:10672800652103F051F840F63C6040F68062C2F201
:106738002000C2F22002892103F046F840F690605A
:1067480040F6C462C2F22000C2F22002672103F0C0
:106758003BF840F6D460C2F2200003F011F880B58F
:106768006F4680BDF0B503AF2DE9000FADF5057D8F
:106778000DF1040980464FF40071484603F0D5FC3A
:1067880044F2E02A0DF5017BC2F2000A00246FF002
:106798000F055646DAE96001CDE98301584682942F
:1067A800819602F05CF90DF5017C09EB05001035C6
:1067B8000C369CE80E1001341030B5F5F87F80E8EF
:1067C8000E10E7D101A940464FF4007203F060FDB6
:1067D8000DF5057DBDE8000FF0BD80B56F46B1F53C
:1067E800487F98BF4FF4487140F22762914228BF12
:1067F800114644F2AF73A1F5487100688AB25A4352
:10680800C368A1EB124189B2490801EB124123F098
:106818001F0242EA1111C16004E00168B1F1FF3FB3
:10682800D8BF80BD0168002905D4016800295CBF74
:1068380001680029F1D580BDF0B503AF2DE9000B43
:1068480044F2E043C4F21F031B68C3F30B2E4FEA64
:10685800135CE6451FBF0124C1F88841DBB24FF441
:106868007A781FBF03FB08F9ACEB0E04D1F89061EE
:1068780049F658651FBFCFF6FF7513FB085393FB06
:10688800F4F3C2EA06021FBFC1F8902180E80A406B
:10689800C0F80C90BDE8000B18BFF0BD40F6507072
:1068A800C2F2200002F06CFFF0B503AF2DE9000F33
:1068B80083B0D1F800B00A46DBF80010002940F098
:1068C800D781D2E901514FF0FF33CBF80030D268BD
:1068D8002B78DBF808405E0046EAD316F3B29C42F8
:1068E8003CD9DBF81C4006F00F062468BFF35F8F25
:1068F800A4B224FA06F6F60730D0DBF818609E42F8
:1069080040F2C2812B785E0635D05E00DBF8085075
:1069180046EAD316F3B29D4240F2B081DBF81C5030
:1069280006F00F062D68BFF35F8FADB225FA06F6A5
:10693800F60700F0A381DBF818609E4240F2AC81B4
:10694800DBF8146003EB830306EB830ADAF80C60C8
:10695800766816F0680F20D0072100E00521417005
:106968000121DBF800200170501CCBF8000003B0B7
:10697800BDE8000FF0BDDBF80830002B1FBFDBF8C7
:106988001C301B68BFF35F8F5FEAC3731BD140F6EF
:106998008070C2F2200002F0CBFED9469AF810406F
:1069A80059F820CF04F01F0566B20124DCF8B8318D
:1069B800B6F1FF3FD8BF1B0CAC4023401B0600F0CC
:1069C800B4800021CBE7DBF81830002B00F06C8195
:1069D800DA4601245AF8203F082A5AF80C9CD3F8C2
:1069E800ACE199F8106006F01F0C04FA0CF556D3C8
:1069F80015EA0E0453D0D9F80860C3F8AC51D3F89F
:106A0800402142F40052C3F84021D6E90A25D3F8C0
:106A18004041A40425D4D3F8402142F40052C3F8DD
:106A28004021D6E90A25D3F84041A4045FBFD3F832
:106A3800402142F40052C3F84021D6E90A255CBF40
:106A4800D3F840415FEA84440BD4D3F8402142F4A0
:106A58000052C3F84021D6E90A25D3F84041A404DE
:106A6800CDD5D3F8406126F40056C3F840614D6097
:106A780001250A6099F81020DAF8001053B202F0E4
:106A88001F02D1F8B861B3F1FF3FD8BF360C95406B
:106A98002E40360600F095804FF00808E4E0D9F85B
:106AA8000C40646814F0680F7FF456AFD3F8B8410F
:106AB80076B2B6F1FF3FD8BF240C25402D067FF4EF
:106AC80080AFB6F1FF3F4FF48036C8BF01264FF4C0
:106AD8007F0506FA0CF6C8BFFF252E40C3F8BC6137
:106AE80099F910304FF4803EDAF800604FF47F04D3
:106AF800B3F1FF3F03F01F03C4BFFF244FF0010EA3
:106B080005460EFA03F348462340C6F8783101F0EB
:106B180075FB8046D9F8080051460068C0F30A4260
:106B2800484601F0E7FA28469EE0BBF8303006F008
:106B38000F04E340DB073FF444AF4FF48033029087
:106B4800B6F1FF3FC8BF01234FF47F0603FA05F3F0
:106B5800C8BFFF263340CCF8BC314FF480309AF9D7
:106B680010304FF47F04D9F80060B3F1FF3F03F011
:106B78001F03C4BFFF24012098402040C6F87801B5
:106B8800DAF80C60DAE9013005687468F669C5F36B
:106B98000A48424538BF9046C4F30E42B21A4245ED
:106BA80038BF9046434538BF9846B8F1000F53D0D8
:106BB800DAF800E008F00302B8F1040F1ED200264C
:106BC80039E04FF48036B3F1FF3FC8BF01264FF4D8
:106BD8007F0306FA02F2C8BFFF231A40C1F87821E2
:106BE800D9F80810054648460968C1F30A425146D3
:106BF80001F080FA28464FF0080835E0CDE9002971
:106C080040F2FC7208EA020C4D1C00260EEB06044A
:106C18001EF80630A81994F8019005F80690043675
:106C2800B445A27800F8013C4270E2788270EDD158
:106C3800DDE90029B6446AB19EF80000012A8855AA
:106C480008D031449EF80100022A48701CBF9EF803
:106C580002008870DAF8080000684946C0F30A4262
:106C6800504601F047FA02980021C0F8048078E6FF
:106C780040F66070C2F2200002F0DEFC40F6D070F0
:106C8800C2F2200002F054FD41F24002C2F220029A
:106C98001846314602F07EFD41F23002C2F220026F
:106CA8001846314602F076FD41F230020020C2F269
:106CB8002002002102F06EFDF0B503AF4DF804BDCF
:106CC80082B004682168002940F0F680D0E9011EEE
:106CD8004FF0FF33D0E903C2204640F8043B0B785D
:106CE800DBB14978A5684A0042EAD112D3B29D4285
:106CF80040F2C580E56902F00F022D68BFF35F8F8F
:106D0800ADB225FA02F2D20700F0B980A169994222
:106D180040F2DE8001200521C7E01378A66843F021
:106D280001014D0045EAD315EBB29E4240F2A7801F
:106D3800E66905F00F053668BFF35F8FB6B226FA2D
:106D480005F5ED0700F09B80A169994240F2C080EB
:106D58001378A66843F002014D0045EAD315EBB25B
:106D68009E4240F28C80E66905F00F053668BFF355
:106D78005F8FB6B226FA05F5ED0700F08080A169AD
:106D8800994240F2A5801378A66843F003014D00AC
:106D980045EAD315EBB29E4271D9E66905F00F05B5
:106DA8003668BFF35F8FB6B226FA05F5ED0766D0F1
:106DB800A169994240F28C801378A66843F00401D7
:106DC8004D0045EAD315EBB29E4258D9E66905F065
:106DD8000F053668BFF35F8FB6B226FA05F5ED07E3
:106DE8004DD0A169994273D91378A66843F005017B
:106DF8004D0045EAD315EBB29E4240D9E66905F04D
:106E08000F053668BFF35F8FB6B226FA05F5ED07B2
:106E180035D0A16999425BD91378A66843F0060179
:106E28004D0045EAD315EBB29E4228D9E66905F034
:106E38000F053668BFF35F8FB6B226FA05F5ED0782
:106E48001DD0A169994243D91278A56842F007017B
:106E58004B0043EAD212D3B29D4210D9E56902F041
:106E68000F022D68BFF35F8FADB225FA02F2D20789
:106E780005D0A16999422BD90120032115E0E26AC6
:106E8800BEF800309A4203D3D21AA66AB24202D29E
:106E98000120042109E0E2620D469CF8006000969A
:106EA80001F0AAF870B10020294622680132226058
:106EB80002B05DF804BBF0BD40F66070C2F220007D
:106EC80002F0BAFB40F69070C2F2200002F030FCEB
:106ED80041F240021846C2F2200202F05BFCF0B513
:106EE80003AF4DF804BD84B00468216800296DD152
:106EF800D0E901014FF0FF322260A56803785800FD
:106F080040EAD312D0B2854259D991F800C002F0B4
:106F18000F02E169012505FA02F20968BFF35F8FE4
:106F28000A424CD0A16981425CD9A168814253D9F7
:106F3800E1690968BFF35F8F0A424DD0A1698142B8
:106F480056D9214600EB800051F8206F51F80C5CAF
:106F580005EB8000057C05F07F020192082A4DD2DE
:106F68006DB205F03F024FFA83FE002D06EB820258
:106F7800D2F8C03146BF23F480336CF310436CF36E
:106F88000003BEF1000FC2F8C03118D45FEACC721A
:106F980015D10A68012690F91030002BD2F8B821D3
:106FA80003F01F0348BF120C06FA03F31A40120637
:106FB80005D182681268C2F30A4201F09BF8206882
:106FC8000130206004B05DF804BBF0BD40F660708D
:106FD800C2F2200002F030FB40F6E070C2F220005E
:106FE80002F0A6FB41F24002C2F2200202F0D2FBFC
:106FF80041F23002C2F2200202F0CCFB46F6D91070
:1070080041F20002C0F2000002A9039001A8029018
:1070180040F29C50C2F22000C2F2200202F0D4FBDF
:10702800F0B503AF2DE9000F83B00E683268002A6F
:1070380040F00082D1E9015ECC684FF0FF31316049
:107048002978B2684B0043EAD111CBB29A4272D97F
:10705800F26901F00F011268BFF35F8F92B222FA52
:1070680001F1C90767D0B169994240F2EF812978E7
:107078004A0662D04B0043EAD111B268CBB29A42B9
:1070880040F2DE81F26901F00F011268BFF35F8FF1
:1070980092B222FA01F1C90700F0D281B16999428E
:1070A80040F2E181716903EB830201EB8209D9F8AF
:1070B8000C10496811F0680F54D1B04699F81020A7
:1070C80058F820CF02F01F0355B20122DCF8B8119E
:1070D800B5F1FF3FD8BF090C9A401140090657D1B6
:1070E80002904FF48030B5F1FF3FC8BF01204FF444
:1070F8007F0100FA03F0C8BFFF210840CCF87801EF
:10710800D9E9010109684FEA114A6FF3DF2A5445AA
:1071180038BFA246504538BF8246BAF1000F00F08A
:10712800C280D9F800400AF00302BAF1040F67D20E
:10713800002123467CE005212BE0B1680229C0F03C
:107148008C81F1690968BFF35F8F890740F18581F8
:10715800B169012940F28E8171690A6A526812F098
:10716800680F01D0072114E0B14691F8242059F89E
:1071780020CF02F01F0A53B20122DCF8B85102FAFC
:107188000AF2B3F1FF3FD8BF2D0C2A4012060AD0ED
:1071980000214170012132680170501C306003B039
:1071A800BDE8000FF0BD02904FF48030B3F1FF3F0F
:1071B800C8BF01204FF47F0200FA0AF0C8BFFF22BF
:1071C8001040CCF8780101F11408D1E906010968EA
:1071D8004FEA114A6FF3DF2A544538BFA24650459B
:1071E80038BF8246BAF1000F00F0BF80D8F80040DF
:1071F8000AF0030CBAF1040F5FD20021234676E0AF
:107208000EF101032AF0030B002101925D185A5C6C
:1072180015F8010C95F801C0AD7860546018043178
:1072280042708B4580F802C0C570EFD1019A63188F
:1072380062B11EF80100012A187007D00EEB010098
:10724800022A417859701CBF80789870AAF1010011
:10725800012101EB501505F0030B01F02AFC4EF655
:10726800707024F01F01CEF20000BAF1610F0ED346
:1072780025F0030201F120030160036001F14003DE
:10728800036001F160038031043A0360F2D1BBF17D
:10729800000F1CBF0160BBF1010F40F0B98001F085
:1072A80008FC01F009FC48464146524600F022FF1E
:1072B8000298C0F804A000216DE70EF101032AF03E
:1072C800030B0021CDF804805D185A5C15F8010CF9
:1072D80095F80180AD7860546018043142708B4590
:1072E80080F80280C570EFD1DDF804806318BCF126
:1072F800000F0ED01EF80100BCF1010F187008D065
:107308000EEB0100BCF1020F417859701CBF807868
:107318009870AAF10100012101EB501505F0030B4B
:1073280001F0C7FB4EF6707024F01F01CEF200008A
:10733800BAF1610F0ED325F0030201F120030160B9
:10734800036001F14003036001F160038031043AF6
:107358000360F2D1BBF1000F1CBF0160BBF1010F4C
:107368005FD101F0A6FB01F0A7FB40464946524613
:1073780000F0C0FEB06800281FBFF0690068BFF3C6
:107388005F8F5FEAC07005D140F6B070C2F220008E
:1073980002F0CEF9B0690028029872D0D6F814C06D
:1073A8000121326A9CF81030D2F8B8415DB203F07E
:1073B8001F03B5F1FF3FD8BF240C994021400906AF
:1073C8007FF477AF4FF48031B5F1FF3FC8BF01219B
:1073D8004FF47F0401FA03F1C8BFFF242140C2F82B
:1073E800BC119CF910104FF480304FF47F05D9F888
:1073F8000020B1F1FF3F01F01F01C4BFFF250120AC
:10740800884049462840C2F87801604600224DE786
:1074180001F120020260BBF1020F1CBF4031016084
:107428003DE701F120020260BBF1020F1CBF4031B1
:10743800016096E740F66070C2F2200002F0FCF8A6
:1074480040F6F070C2F2200002F072F941F24002F8
:107458001846C2F2200202F09DF940F6A070C2F26E
:10746800200002F065F941F230021846C2F220020B
:1074780002F090F941F230020120C2F2200202F03B
:1074880089F941F230020020C2F22002002102F004
:1074980081F9F0B503AF2DE9000794B08046006884
:1074A800002840F082804FF0FF30C2464AF8200B97
:1074B800002008210C90CDE9060108F10409089084
:1074C80001210390019001A800F1400600F1100489
:1074D800CDF8409005910AE022F44C0242EA81413D
:1074E80001F54001C0F8C411059802281FD02046B4
:1074F800314600F0C4FCD0B1017C11F07F02F3D01A
:10750800DAF80030082A119255D24DB2417C501E4B
:10751800B5F1FF3FC0B203EB8000D0F8C421DBDD3A
:1075280022F00C0242EA810141F0C001DAE70020B2
:107538000821CDE906010121CDF840900C90089072
:107548000591039001900CE0B1F1FF3F06DD8168E1
:107558000968C1F30A42514600F0CCFD059802289B
:107568001AD02046314600F08AFCA8B1027C51B2FC
:1075780012F07F02E8D0DAF80030082A11921AD205
:10758800013A0029D2B203EB8202D2F8C421E5D431
:1075980012F08001DBD1E1E7D8F800000130C8F82B
:1075A800000014B0BDE80007F0BD40F66070C2F2FC
:1075B800200002F041F846F6D91041F20002C0F26C
:1075C800000012A9139011A8129040F29C50C2F228
:1075D8002000C2F2200202F0F7F8F0B503AF4DF830
:1075E80004BD044690F834000D46012801D12068F6
:1075F80029E001F064FA064601F057FA2068F1071D
:1076080021D1002801BF206A4FF0FF312160D0F856
:10761800481101BF21F0410165F3000165F38611AE
:10762800C0F8481101BF2068013020605DF804BB34
:1076380004BFBDE8F04001F03ABA40F66070C2F20B
:10764800200001F0F9FF002801BF206A4FF0FF3148
:107658002160D0F8481101BF21F0410165F3000114
:1076680065F38611C0F8481101BF20680130206019
:107678005DF804BB08BFF0BDDFE790F834100129BE
:1076880008BFFFF706BFB0B502AF044601F017FA0E
:10769800054601F00AFA2046FFF7FBFEE807BDE8B9
:1076A800B04018BF704701F002BAF0B503AF4DF80B
:1076B80004BD84B0044690F834000D46012801D179
:1076C800206845E001F0FBF9064601F0EEF9206874
:1076D800F1073DD16FF00041884275D2013020603A
:1076E800E8B2690041EAD011A268C8B2824271D9F1
:1076F800E26901F00F011268BFF35F8F92B222FABC
